{
  "transactions": [
    {
      "hash": "0x89645c087561bf9e6a97b8d6c00b46671f41e1e438f72d623134ac2aa59eb236",
      "transactionType": "CALL",
      "contractName": null,
      "contractAddress": "0x7b79995e5f793a07bc00c21412e50ecae098e7f9",
      "function": "approve(address,uint256)",
      "arguments": [
        "0xC7f2Cf4845C6db0e1a1e91ED41Bcd0FcC1b0E141",
        "30000000000000000000000000"
      ],
      "transaction": {
        "from": "0x0d7bce289d74790a4771e38b73f4cb56085cc296",
        "to": "0x7b79995e5f793a07bc00c21412e50ecae098e7f9",
        "gas": "0x9c3a",
        "value": "0x0",
        "input": "0x095ea7b3000000000000000000000000c7f2cf4845c6db0e1a1e91ed41bcd0fcc1b0e14100000000000000000000000000000000000000000018d0bf423c03d8de000000",
        "nonce": "0x576",
        "chainId": "0xaa36a7"
      },
      "additionalContracts": [],
      "isFixedGasLimit": false
    },
    {
      "hash": "0x5cc7be5927ca944de34edbf39c2b95f5ddde9d53ff05e53a5d469467cdc9d8d9",
      "transactionType": "CALL",
      "contractName": null,
      "contractAddress": "0xaa8e23fb1079ea71e0a56f48a2aa51851d8433d0",
      "function": "approve(address,uint256)",
      "arguments": [
        "0xC7f2Cf4845C6db0e1a1e91ED41Bcd0FcC1b0E141",
        "30000000000000000000000000"
      ],
      "transaction": {
        "from": "0x0d7bce289d74790a4771e38b73f4cb56085cc296",
        "to": "0xaa8e23fb1079ea71e0a56f48a2aa51851d8433d0",
        "gas": "0x9d69",
        "value": "0x0",
        "input": "0x095ea7b3000000000000000000000000c7f2cf4845c6db0e1a1e91ed41bcd0fcc1b0e14100000000000000000000000000000000000000000018d0bf423c03d8de000000",
        "nonce": "0x577",
        "chainId": "0xaa36a7"
      },
      "additionalContracts": [],
      "isFixedGasLimit": false
    },
    {
      "hash": "0x83cc2a36fd50fb2524c8c36ab5d708e16b1e697c52fea8cec5500032e5b49a77",
      "transactionType": "CALL",
      "contractName": "PoolModifyLiquidityTest",
      "contractAddress": "0xc7f2cf4845c6db0e1a1e91ed41bcd0fcc1b0e141",
      "function": "modifyLiquidity((address,address,uint24,int24,address),(int24,int24,int256,bytes32),bytes)",
      "arguments": [
        "(0x7b79995e5f793A07Bc00c21412e50Ecae098E7f9, 0xaA8E23Fb1079EA71e0a56F48a2aA51851D8433D0, 3000, 60, 0x0000000000000000000000000000000000000000)",
        "(-60, 60, 100000000000, 0x0000000000000000000000000000000000000000000000000000000000000000)",
        "0x"
      ],
      "transaction": {
        "from": "0x0d7bce289d74790a4771e38b73f4cb56085cc296",
        "to": "0xc7f2cf4845c6db0e1a1e91ed41bcd0fcc1b0e141",
        "gas": "0x7e7d",
        "value": "0x0",
        "input": "0x5a6bcfda0000000000000000000000007b79995e5f793a07bc00c21412e50ecae098e7f9000000000000000000000000aa8e23fb1079ea71e0a56f48a2aa51851d8433d00000000000000000000000000000000000000000000000000000000000000bb8000000000000000000000000000000000000000000000000000000000000003c0000000000000000000000000000000000000000000000000000000000000000ffffffffffffffffffffffffffffffffffffffffffffffffffffffffffffffc4000000000000000000000000000000000000000000000000000000000000003c000000000000000000000000000000000000000000000000000000174876e800000000000000000000000000000000000000000000000000000000000000000000000000000000000000000000000000000000000000000000000000000001400000000000000000000000000000000000000000000000000000000000000000",
        "nonce": "0x578",
        "chainId": "0xaa36a7"
      },
      "additionalContracts": [],
      "isFixedGasLimit": false
    }
  ],
  "receipts": [
    {
      "status": "0x1",
      "cumulativeGasUsed": "0xd5678a",
      "logs": [
        {
          "address": "0x7b79995e5f793a07bc00c21412e50ecae098e7f9",
          "topics": [
            "0x8c5be1e5ebec7d5bd14f71427d1e84f3dd0314c0f7b2291e5b200ac8c7c3b925",
            "0x0000000000000000000000000d7bce289d74790a4771e38b73f4cb56085cc296",
            "0x000000000000000000000000c7f2cf4845c6db0e1a1e91ed41bcd0fcc1b0e141"
          ],
          "data": "0x00000000000000000000000000000000000000000018d0bf423c03d8de000000",
          "blockHash": "0x5f83892c9f28175ff54a254030cfa9620ac6d9c6298f3f73e1662997d533781b",
          "blockNumber": "0x65f7fa",
          "transactionHash": "0x89645c087561bf9e6a97b8d6c00b46671f41e1e438f72d623134ac2aa59eb236",
          "transactionIndex": "0x58",
          "logIndex": "0x5d",
          "removed": false
        }
      ],
      "logsBloom": "0x00000000000000000000000000000000000000000000000000000004000000000000000000000000000000000001000000000000000000000000040000200000000000000000000000000000000000000000000000000000000000000000000000000000000000000000000000000000000000000000000000000000000000000000000008000000000000000000000000000000000000000000000000000000020000000000000010000000000000080000000000000000000000000000000000000002000000000000000000000000000100000000000000000000000000000010000000000000000000000000000000000000000000200000000000000000",
      "type": "0x2",
      "transactionHash": "0x89645c087561bf9e6a97b8d6c00b46671f41e1e438f72d623134ac2aa59eb236",
      "transactionIndex": "0x58",
      "blockHash": "0x5f83892c9f28175ff54a254030cfa9620ac6d9c6298f3f73e1662997d533781b",
      "blockNumber": "0x65f7fa",
      "gasUsed": "0x711c",
      "effectiveGasPrice": "0x2c44db0b",
      "from": "0x0d7bce289d74790a4771e38b73f4cb56085cc296",
      "to": "0x7b79995e5f793a07bc00c21412e50ecae098e7f9",
      "contractAddress": null
    },
    {
      "status": "0x1",
      "cumulativeGasUsed": "0xd5d981",
      "logs": [
        {
          "address": "0xaa8e23fb1079ea71e0a56f48a2aa51851d8433d0",
          "topics": [
            "0x8c5be1e5ebec7d5bd14f71427d1e84f3dd0314c0f7b2291e5b200ac8c7c3b925",
            "0x0000000000000000000000000d7bce289d74790a4771e38b73f4cb56085cc296",
            "0x000000000000000000000000c7f2cf4845c6db0e1a1e91ed41bcd0fcc1b0e141"
          ],
          "data": "0x00000000000000000000000000000000000000000018d0bf423c03d8de000000",
          "blockHash": "0x5f83892c9f28175ff54a254030cfa9620ac6d9c6298f3f73e1662997d533781b",
          "blockNumber": "0x65f7fa",
          "transactionHash": "0x5cc7be5927ca944de34edbf39c2b95f5ddde9d53ff05e53a5d469467cdc9d8d9",
          "transactionIndex": "0x59",
          "logIndex": "0x5e",
          "removed": false
        }
      ],
      "logsBloom": "0x00000000000000000000000000000000000000000000000000000000000000000000000000000000000000000001002000000000000000000000040000200000000000000000000000000000000000000000000000000000000000000000000004000000000000000000000000000000000000000000000000000000000000000000000008000000004000000000000000000000000000000000000000000000020000000000000010000000000000000000000000000000000000000000000000000000000000000000000000000000000100000000000000000000000000000010000000000000000000000000000000000000000000200000000000000000",
      "type": "0x2",
      "transactionHash": "0x5cc7be5927ca944de34edbf39c2b95f5ddde9d53ff05e53a5d469467cdc9d8d9",
      "transactionIndex": "0x59",
      "blockHash": "0x5f83892c9f28175ff54a254030cfa9620ac6d9c6298f3f73e1662997d533781b",
      "blockNumber": "0x65f7fa",
      "gasUsed": "0x71f7",
      "effectiveGasPrice": "0x2c44db0b",
      "from": "0x0d7bce289d74790a4771e38b73f4cb56085cc296",
      "to": "0xaa8e23fb1079ea71e0a56f48a2aa51851d8433d0",
      "contractAddress": null
    },
    {
      "status": "0x1",
      "cumulativeGasUsed": "0xd63515",
      "logs": [],
      "logsBloom": "0x00000000000000000000000000000000000000000000000000000000000000000000000000000000000000000000000000000000000000000000000000000000000000000000000000000000000000000000000000000000000000000000000000000000000000000000000000000000000000000000000000000000000000000000000000000000000000000000000000000000000000000000000000000000000000000000000000000000000000000000000000000000000000000000000000000000000000000000000000000000000000000000000000000000000000000000000000000000000000000000000000000000000000000000000000000000",
      "type": "0x2",
      "transactionHash": "0x83cc2a36fd50fb2524c8c36ab5d708e16b1e697c52fea8cec5500032e5b49a77",
      "transactionIndex": "0x5a",
      "blockHash": "0x5f83892c9f28175ff54a254030cfa9620ac6d9c6298f3f73e1662997d533781b",
      "blockNumber": "0x65f7fa",
      "gasUsed": "0x5b94",
      "effectiveGasPrice": "0x2c44db0b",
      "from": "0x0d7bce289d74790a4771e38b73f4cb56085cc296",
      "to": "0xc7f2cf4845c6db0e1a1e91ed41bcd0fcc1b0e141",
      "contractAddress": null
    }
  ],
  "libraries": [],
  "pending": [],
  "returns": {},
  "timestamp": 1726213141,
  "chain": 11155111,
  "commit": "9af5f69"
}