{
  "transactions": [
    {
      "hash": "0xf8c4159639de6f35432388b3f60b5cb593d66284348d017c6748ebbe3ec6d3e5",
      "transactionType": "CALL",
      "contractName": null,
      "contractAddress": "0x7b79995e5f793a07bc00c21412e50ecae098e7f9",
      "function": "approve(address,uint256)",
      "arguments": [
        "0x5cB77dF5efAB7568e13dB1e341BC0d44e08f40f9",
        "30000000000000000000000000"
      ],
      "transaction": {
        "from": "0x0d7bce289d74790a4771e38b73f4cb56085cc296",
        "to": "0x7b79995e5f793a07bc00c21412e50ecae098e7f9",
        "gas": "0xf87e",
        "value": "0x0",
        "input": "0x095ea7b30000000000000000000000005cb77df5efab7568e13db1e341bc0d44e08f40f900000000000000000000000000000000000000000018d0bf423c03d8de000000",
        "nonce": "0x579",
        "chainId": "0xaa36a7"
      },
      "additionalContracts": [],
      "isFixedGasLimit": false
    },
    {
      "hash": "0xcecc750b82bdde1a614bc967de41e6481b63260d32374a4a9e9e497888ec8e5a",
      "transactionType": "CALL",
      "contractName": null,
      "contractAddress": "0xaa8e23fb1079ea71e0a56f48a2aa51851d8433d0",
      "function": "approve(address,uint256)",
      "arguments": [
        "0x5cB77dF5efAB7568e13dB1e341BC0d44e08f40f9",
        "30000000000000000000000000"
      ],
      "transaction": {
        "from": "0x0d7bce289d74790a4771e38b73f4cb56085cc296",
        "to": "0xaa8e23fb1079ea71e0a56f48a2aa51851d8433d0",
        "gas": "0x1085c",
        "value": "0x0",
        "input": "0x095ea7b30000000000000000000000005cb77df5efab7568e13db1e341bc0d44e08f40f900000000000000000000000000000000000000000018d0bf423c03d8de000000",
        "nonce": "0x57a",
        "chainId": "0xaa36a7"
      },
      "additionalContracts": [],
      "isFixedGasLimit": false
    },
    {
      "hash": "0xacb51c04a80163e7047e190bf676b98caa6f7fd8ca170d9f2b417f5ae38de9d1",
      "transactionType": "CALL",
      "contractName": null,
      "contractAddress": "0x5cb77df5efab7568e13db1e341bc0d44e08f40f9",
      "function": "modifyLiquidity((address,address,uint24,int24,address),(int24,int24,int256,bytes32),bytes)",
      "arguments": [
        "(0x7b79995e5f793A07Bc00c21412e50Ecae098E7f9, 0xaA8E23Fb1079EA71e0a56F48a2aA51851D8433D0, 3000, 60, 0x0000000000000000000000000000000000000000)",
        "(-60, 60, 100000000000, 0x0000000000000000000000000000000000000000000000000000000000000000)",
        "0x"
      ],
      "transaction": {
        "from": "0x0d7bce289d74790a4771e38b73f4cb56085cc296",
        "to": "0x5cb77df5efab7568e13db1e341bc0d44e08f40f9",
        "gas": "0x6768a",
        "value": "0x0",
        "input": "0x5a6bcfda0000000000000000000000007b79995e5f793a07bc00c21412e50ecae098e7f9000000000000000000000000aa8e23fb1079ea71e0a56f48a2aa51851d8433d00000000000000000000000000000000000000000000000000000000000000bb8000000000000000000000000000000000000000000000000000000000000003c0000000000000000000000000000000000000000000000000000000000000000ffffffffffffffffffffffffffffffffffffffffffffffffffffffffffffffc4000000000000000000000000000000000000000000000000000000000000003c000000000000000000000000000000000000000000000000000000174876e800000000000000000000000000000000000000000000000000000000000000000000000000000000000000000000000000000000000000000000000000000001400000000000000000000000000000000000000000000000000000000000000000",
        "nonce": "0x57b",
        "chainId": "0xaa36a7"
      },
      "additionalContracts": [],
      "isFixedGasLimit": false
    }
  ],
  "receipts": [
    {
      "status": "0x1",
      "cumulativeGasUsed": "0xba4f4d",
      "logs": [
        {
          "address": "0x7b79995e5f793a07bc00c21412e50ecae098e7f9",
          "topics": [
            "0x8c5be1e5ebec7d5bd14f71427d1e84f3dd0314c0f7b2291e5b200ac8c7c3b925",
            "0x0000000000000000000000000d7bce289d74790a4771e38b73f4cb56085cc296",
            "0x0000000000000000000000005cb77df5efab7568e13db1e341bc0d44e08f40f9"
          ],
          "data": "0x00000000000000000000000000000000000000000018d0bf423c03d8de000000",
          "blockHash": "0x3b8bacfa375fabba23f4833c8a5b493286db6a3799d0262b8d691184a365c92e",
          "blockNumber": "0x65f807",
          "transactionHash": "0xf8c4159639de6f35432388b3f60b5cb593d66284348d017c6748ebbe3ec6d3e5",
          "transactionIndex": "0x61",
          "logIndex": "0xd0",
          "removed": false
        }
      ],
      "logsBloom": "0x00000000000000000000000000000000000000000000000000000004000000000000000000000000000000000001000000000000000000000000000000200000000000000000000000000000000000000000000000000000000010000000000000000000000000000000000000000000000000000000000000000000000000000000800008000000000000000000000000000000000000000000000000000000020000000000000000000000000000080000000000000010000000000000000000000002000000000000000000000000000100000000000000000000000000000010000000000000000000000000000000000000000000000000000000000000",
      "type": "0x2",
      "transactionHash": "0xf8c4159639de6f35432388b3f60b5cb593d66284348d017c6748ebbe3ec6d3e5",
      "transactionIndex": "0x61",
      "blockHash": "0x3b8bacfa375fabba23f4833c8a5b493286db6a3799d0262b8d691184a365c92e",
      "blockNumber": "0x65f807",
      "gasUsed": "0xb3e8",
      "effectiveGasPrice": "0x8eba9141",
      "from": "0x0d7bce289d74790a4771e38b73f4cb56085cc296",
      "to": "0x7b79995e5f793a07bc00c21412e50ecae098e7f9",
      "contractAddress": null
    },
    {
      "status": "0x1",
      "cumulativeGasUsed": "0xbb0410",
      "logs": [
        {
          "address": "0xaa8e23fb1079ea71e0a56f48a2aa51851d8433d0",
          "topics": [
            "0x8c5be1e5ebec7d5bd14f71427d1e84f3dd0314c0f7b2291e5b200ac8c7c3b925",
            "0x0000000000000000000000000d7bce289d74790a4771e38b73f4cb56085cc296",
            "0x0000000000000000000000005cb77df5efab7568e13db1e341bc0d44e08f40f9"
          ],
          "data": "0x00000000000000000000000000000000000000000018d0bf423c03d8de000000",
          "blockHash": "0x3b8bacfa375fabba23f4833c8a5b493286db6a3799d0262b8d691184a365c92e",
          "blockNumber": "0x65f807",
          "transactionHash": "0xcecc750b82bdde1a614bc967de41e6481b63260d32374a4a9e9e497888ec8e5a",
          "transactionIndex": "0x62",
          "logIndex": "0xd1",
          "removed": false
        }
      ],
      "logsBloom": "0x00000000000000000000000000000000000000000000000000000000000000000000000000000000000000000001002000000000000000000000000000200000000000000000000000000000000000000000000000000000000010000000000004000000000000000000000000000000000000000000000000000000000000000000800008000000004000000000000000000000000000000000000000000000020000000000000000000000000000000000000000000010000000000000000000000000000000000000000000000000000100000000000000000000000000000010000000000000000000000000000000000000000000000000000000000000",
      "type": "0x2",
      "transactionHash": "0xcecc750b82bdde1a614bc967de41e6481b63260d32374a4a9e9e497888ec8e5a",
      "transactionIndex": "0x62",
      "blockHash": "0x3b8bacfa375fabba23f4833c8a5b493286db6a3799d0262b8d691184a365c92e",
      "blockNumber": "0x65f807",
      "gasUsed": "0xb4c3",
      "effectiveGasPrice": "0x8eba9141",
      "from": "0x0d7bce289d74790a4771e38b73f4cb56085cc296",
      "to": "0xaa8e23fb1079ea71e0a56f48a2aa51851d8433d0",
      "contractAddress": null
    },
    {
      "status": "0x1",
      "cumulativeGasUsed": "0xbfb1ec",
      "logs": [
        {
          "address": "0xe9767c91c1546b0e89d757044b6045c6fb69ab38",
          "topics": [
            "0xf208f4912782fd25c7f114ca3723a2d5dd6f3bcc3ac8db5af63baa85f711d5ec",
            "0xdef4905c87baea32386d12b45684f262d62a164e596d6ef860ff4c2ea23200f8",
            "0x0000000000000000000000005cb77df5efab7568e13db1e341bc0d44e08f40f9"
          ],
          "data": "0xffffffffffffffffffffffffffffffffffffffffffffffffffffffffffffffc4000000000000000000000000000000000000000000000000000000000000003c000000000000000000000000000000000000000000000000000000174876e8000000000000000000000000000000000000000000000000000000000000000000",
          "blockHash": "0x3b8bacfa375fabba23f4833c8a5b493286db6a3799d0262b8d691184a365c92e",
          "blockNumber": "0x65f807",
          "transactionHash": "0xacb51c04a80163e7047e190bf676b98caa6f7fd8ca170d9f2b417f5ae38de9d1",
          "transactionIndex": "0x63",
          "logIndex": "0xd2",
          "removed": false
        },
        {
          "address": "0x7b79995e5f793a07bc00c21412e50ecae098e7f9",
          "topics": [
            "0xddf252ad1be2c89b69c2b068fc378daa952ba7f163c4a11628f55a4df523b3ef",
            "0x0000000000000000000000000d7bce289d74790a4771e38b73f4cb56085cc296",
            "0x000000000000000000000000e9767c91c1546b0e89d757044b6045c6fb69ab38"
          ],
          "data": "0x0000000000000000000000000000000000000000000000000000000011da8c88",
          "blockHash": "0x3b8bacfa375fabba23f4833c8a5b493286db6a3799d0262b8d691184a365c92e",
          "blockNumber": "0x65f807",
          "transactionHash": "0xacb51c04a80163e7047e190bf676b98caa6f7fd8ca170d9f2b417f5ae38de9d1",
          "transactionIndex": "0x63",
          "logIndex": "0xd3",
          "removed": false
        },
        {
          "address": "0xaa8e23fb1079ea71e0a56f48a2aa51851d8433d0",
          "topics": [
            "0xddf252ad1be2c89b69c2b068fc378daa952ba7f163c4a11628f55a4df523b3ef",
            "0x0000000000000000000000000d7bce289d74790a4771e38b73f4cb56085cc296",
            "0x000000000000000000000000e9767c91c1546b0e89d757044b6045c6fb69ab38"
          ],
          "data": "0x0000000000000000000000000000000000000000000000000000000011da8c88",
          "blockHash": "0x3b8bacfa375fabba23f4833c8a5b493286db6a3799d0262b8d691184a365c92e",
          "blockNumber": "0x65f807",
          "transactionHash": "0xacb51c04a80163e7047e190bf676b98caa6f7fd8ca170d9f2b417f5ae38de9d1",
          "transactionIndex": "0x63",
          "logIndex": "0xd4",
          "removed": false
        },
        {
          "address": "0xaa8e23fb1079ea71e0a56f48a2aa51851d8433d0",
          "topics": [
            "0x8c5be1e5ebec7d5bd14f71427d1e84f3dd0314c0f7b2291e5b200ac8c7c3b925",
            "0x0000000000000000000000000d7bce289d74790a4771e38b73f4cb56085cc296",
            "0x0000000000000000000000005cb77df5efab7568e13db1e341bc0d44e08f40f9"
          ],
          "data": "0x00000000000000000000000000000000000000000018d0bf423c03d8cc257378",
          "blockHash": "0x3b8bacfa375fabba23f4833c8a5b493286db6a3799d0262b8d691184a365c92e",
          "blockNumber": "0x65f807",
          "transactionHash": "0xacb51c04a80163e7047e190bf676b98caa6f7fd8ca170d9f2b417f5ae38de9d1",
          "transactionIndex": "0x63",
          "logIndex": "0xd5",
          "removed": false
        }
      ],
      "logsBloom": "0x0000000000000000000000000000000000000000040000000000000400000000000000000000000000000000000100a000000000000000000000000000200000000004000000000000100008000000000000000000000000008010000000000004000000000000000000000000000000000000000000000100000010010000000000800009000000004000000000000000000000000000000000000000000000020004000000000000000000000000080000000000000010000000000000000000000002000000000000004000000000000100000000000000000000000000000010000000000000000000000000000004000000000000000000000000000000",
      "type": "0x2",
      "transactionHash": "0xacb51c04a80163e7047e190bf676b98caa6f7fd8ca170d9f2b417f5ae38de9d1",
      "transactionIndex": "0x63",
      "blockHash": "0x3b8bacfa375fabba23f4833c8a5b493286db6a3799d0262b8d691184a365c92e",
      "blockNumber": "0x65f807",
      "gasUsed": "0x4addc",
      "effectiveGasPrice": "0x8eba9141",
      "from": "0x0d7bce289d74790a4771e38b73f4cb56085cc296",
      "to": "0x5cb77df5efab7568e13db1e341bc0d44e08f40f9",
      "contractAddress": null
    }
  ],
  "libraries": [],
  "pending": [],
  "returns": {},
  "timestamp": 1726213348,
  "chain": 11155111,
  "commit": "9af5f69"
}