{
  "transactions": [
    {
      "hash": "0xf01c7b17c5321e6a0f8c09d1e53f5a81fbf39aa202233ae228f0939076d291a1",
      "transactionType": "CALL",
      "contractName": null,
      "contractAddress": "0x7b79995e5f793a07bc00c21412e50ecae098e7f9",
      "function": "approve(address,uint256)",
      "arguments": [
        "0x5cB77dF5efAB7568e13dB1e341BC0d44e08f40f9",
        "30000000000000000000000000"
      ],
      "transaction": {
        "from": "0x0d7bce289d74790a4771e38b73f4cb56085cc296",
        "to": "0x7b79995e5f793a07bc00c21412e50ecae098e7f9",
        "gas": "0x9c3a",
        "value": "0x0",
        "input": "0x095ea7b30000000000000000000000005cb77df5efab7568e13db1e341bc0d44e08f40f900000000000000000000000000000000000000000018d0bf423c03d8de000000",
        "nonce": "0x57c",
        "chainId": "0xaa36a7"
      },
      "additionalContracts": [],
      "isFixedGasLimit": false
    },
    {
      "hash": "0x4e2eacd06d8e50a001a9e7038b70f35ea1aafb6b1462229fbe7b6f37f5abfece",
      "transactionType": "CALL",
      "contractName": null,
      "contractAddress": "0xaa8e23fb1079ea71e0a56f48a2aa51851d8433d0",
      "function": "approve(address,uint256)",
      "arguments": [
        "0x5cB77dF5efAB7568e13dB1e341BC0d44e08f40f9",
        "30000000000000000000000000"
      ],
      "transaction": {
        "from": "0x0d7bce289d74790a4771e38b73f4cb56085cc296",
        "to": "0xaa8e23fb1079ea71e0a56f48a2aa51851d8433d0",
        "gas": "0x9d69",
        "value": "0x0",
        "input": "0x095ea7b30000000000000000000000005cb77df5efab7568e13db1e341bc0d44e08f40f900000000000000000000000000000000000000000018d0bf423c03d8de000000",
        "nonce": "0x57d",
        "chainId": "0xaa36a7"
      },
      "additionalContracts": [],
      "isFixedGasLimit": false
    },
    {
      "hash": "0x599649082da9338bc0a11a1b1d30a4e02f6949a6a1bef1e76db60921ab166386",
      "transactionType": "CALL",
      "contractName": null,
      "contractAddress": "0x5cb77df5efab7568e13db1e341bc0d44e08f40f9",
      "function": "modifyLiquidity((address,address,uint24,int24,address),(int24,int24,int256,bytes32),bytes)",
      "arguments": [
        "(0x7b79995e5f793A07Bc00c21412e50Ecae098E7f9, 0xaA8E23Fb1079EA71e0a56F48a2aA51851D8433D0, 3000, 60, 0x0000000000000000000000000000000000000000)",
        "(-60, 60, 100000000000, 0x0000000000000000000000000000000000000000000000000000000000000000)",
        "0x"
      ],
      "transaction": {
        "from": "0x0d7bce289d74790a4771e38b73f4cb56085cc296",
        "to": "0x5cb77df5efab7568e13db1e341bc0d44e08f40f9",
        "gas": "0x38940",
        "value": "0x0",
        "input": "0x5a6bcfda0000000000000000000000007b79995e5f793a07bc00c21412e50ecae098e7f9000000000000000000000000aa8e23fb1079ea71e0a56f48a2aa51851d8433d00000000000000000000000000000000000000000000000000000000000000bb8000000000000000000000000000000000000000000000000000000000000003c0000000000000000000000000000000000000000000000000000000000000000ffffffffffffffffffffffffffffffffffffffffffffffffffffffffffffffc4000000000000000000000000000000000000000000000000000000000000003c000000000000000000000000000000000000000000000000000000174876e800000000000000000000000000000000000000000000000000000000000000000000000000000000000000000000000000000000000000000000000000000001400000000000000000000000000000000000000000000000000000000000000000",
        "nonce": "0x57e",
        "chainId": "0xaa36a7"
      },
      "additionalContracts": [],
      "isFixedGasLimit": false
    }
  ],
  "receipts": [
    {
      "status": "0x1",
      "cumulativeGasUsed": "0x668782",
      "logs": [
        {
          "address": "0x7b79995e5f793a07bc00c21412e50ecae098e7f9",
          "topics": [
            "0x8c5be1e5ebec7d5bd14f71427d1e84f3dd0314c0f7b2291e5b200ac8c7c3b925",
            "0x0000000000000000000000000d7bce289d74790a4771e38b73f4cb56085cc296",
            "0x0000000000000000000000005cb77df5efab7568e13db1e341bc0d44e08f40f9"
          ],
          "data": "0x00000000000000000000000000000000000000000018d0bf423c03d8de000000",
          "blockHash": "0x7fb851860c3c0b63b5d36ea30fb995cd03ad4e50b8af5423d02e89029910cd2e",
          "blockNumber": "0x65f80b",
          "transactionHash": "0xf01c7b17c5321e6a0f8c09d1e53f5a81fbf39aa202233ae228f0939076d291a1",
          "transactionIndex": "0x4c",
          "logIndex": "0x50",
          "removed": false
        }
      ],
      "logsBloom": "0x00000000000000000000000000000000000000000000000000000004000000000000000000000000000000000001000000000000000000000000000000200000000000000000000000000000000000000000000000000000000010000000000000000000000000000000000000000000000000000000000000000000000000000000800008000000000000000000000000000000000000000000000000000000020000000000000000000000000000080000000000000010000000000000000000000002000000000000000000000000000100000000000000000000000000000010000000000000000000000000000000000000000000000000000000000000",
      "type": "0x2",
      "transactionHash": "0xf01c7b17c5321e6a0f8c09d1e53f5a81fbf39aa202233ae228f0939076d291a1",
      "transactionIndex": "0x4c",
      "blockHash": "0x7fb851860c3c0b63b5d36ea30fb995cd03ad4e50b8af5423d02e89029910cd2e",
      "blockNumber": "0x65f80b",
      "gasUsed": "0x711c",
      "effectiveGasPrice": "0x6b3303c2",
      "from": "0x0d7bce289d74790a4771e38b73f4cb56085cc296",
      "to": "0x7b79995e5f793a07bc00c21412e50ecae098e7f9",
      "contractAddress": null
    },
    {
      "status": "0x1",
      "cumulativeGasUsed": "0x66f979",
      "logs": [
        {
          "address": "0xaa8e23fb1079ea71e0a56f48a2aa51851d8433d0",
          "topics": [
            "0x8c5be1e5ebec7d5bd14f71427d1e84f3dd0314c0f7b2291e5b200ac8c7c3b925",
            "0x0000000000000000000000000d7bce289d74790a4771e38b73f4cb56085cc296",
            "0x0000000000000000000000005cb77df5efab7568e13db1e341bc0d44e08f40f9"
          ],
          "data": "0x00000000000000000000000000000000000000000018d0bf423c03d8de000000",
          "blockHash": "0x7fb851860c3c0b63b5d36ea30fb995cd03ad4e50b8af5423d02e89029910cd2e",
          "blockNumber": "0x65f80b",
          "transactionHash": "0x4e2eacd06d8e50a001a9e7038b70f35ea1aafb6b1462229fbe7b6f37f5abfece",
          "transactionIndex": "0x4d",
          "logIndex": "0x51",
          "removed": false
        }
      ],
      "logsBloom": "0x00000000000000000000000000000000000000000000000000000000000000000000000000000000000000000001002000000000000000000000000000200000000000000000000000000000000000000000000000000000000010000000000004000000000000000000000000000000000000000000000000000000000000000000800008000000004000000000000000000000000000000000000000000000020000000000000000000000000000000000000000000010000000000000000000000000000000000000000000000000000100000000000000000000000000000010000000000000000000000000000000000000000000000000000000000000",
      "type": "0x2",
      "transactionHash": "0x4e2eacd06d8e50a001a9e7038b70f35ea1aafb6b1462229fbe7b6f37f5abfece",
      "transactionIndex": "0x4d",
      "blockHash": "0x7fb851860c3c0b63b5d36ea30fb995cd03ad4e50b8af5423d02e89029910cd2e",
      "blockNumber": "0x65f80b",
      "gasUsed": "0x71f7",
      "effectiveGasPrice": "0x6b3303c2",
      "from": "0x0d7bce289d74790a4771e38b73f4cb56085cc296",
      "to": "0xaa8e23fb1079ea71e0a56f48a2aa51851d8433d0",
      "contractAddress": null
    },
    {
      "status": "0x1",
      "cumulativeGasUsed": "0x696473",
      "logs": [
        {
          "address": "0xe9767c91c1546b0e89d757044b6045c6fb69ab38",
          "topics": [
            "0xf208f4912782fd25c7f114ca3723a2d5dd6f3bcc3ac8db5af63baa85f711d5ec",
            "0xdef4905c87baea32386d12b45684f262d62a164e596d6ef860ff4c2ea23200f8",
            "0x0000000000000000000000005cb77df5efab7568e13db1e341bc0d44e08f40f9"
          ],
          "data": "0xffffffffffffffffffffffffffffffffffffffffffffffffffffffffffffffc4000000000000000000000000000000000000000000000000000000000000003c000000000000000000000000000000000000000000000000000000174876e8000000000000000000000000000000000000000000000000000000000000000000",
          "blockHash": "0x7fb851860c3c0b63b5d36ea30fb995cd03ad4e50b8af5423d02e89029910cd2e",
          "blockNumber": "0x65f80b",
          "transactionHash": "0x599649082da9338bc0a11a1b1d30a4e02f6949a6a1bef1e76db60921ab166386",
          "transactionIndex": "0x4e",
          "logIndex": "0x52",
          "removed": false
        },
        {
          "address": "0x7b79995e5f793a07bc00c21412e50ecae098e7f9",
          "topics": [
            "0xddf252ad1be2c89b69c2b068fc378daa952ba7f163c4a11628f55a4df523b3ef",
            "0x0000000000000000000000000d7bce289d74790a4771e38b73f4cb56085cc296",
            "0x000000000000000000000000e9767c91c1546b0e89d757044b6045c6fb69ab38"
          ],
          "data": "0x0000000000000000000000000000000000000000000000000000000011da8c88",
          "blockHash": "0x7fb851860c3c0b63b5d36ea30fb995cd03ad4e50b8af5423d02e89029910cd2e",
          "blockNumber": "0x65f80b",
          "transactionHash": "0x599649082da9338bc0a11a1b1d30a4e02f6949a6a1bef1e76db60921ab166386",
          "transactionIndex": "0x4e",
          "logIndex": "0x53",
          "removed": false
        },
        {
          "address": "0xaa8e23fb1079ea71e0a56f48a2aa51851d8433d0",
          "topics": [
            "0xddf252ad1be2c89b69c2b068fc378daa952ba7f163c4a11628f55a4df523b3ef",
            "0x0000000000000000000000000d7bce289d74790a4771e38b73f4cb56085cc296",
            "0x000000000000000000000000e9767c91c1546b0e89d757044b6045c6fb69ab38"
          ],
          "data": "0x0000000000000000000000000000000000000000000000000000000011da8c88",
          "blockHash": "0x7fb851860c3c0b63b5d36ea30fb995cd03ad4e50b8af5423d02e89029910cd2e",
          "blockNumber": "0x65f80b",
          "transactionHash": "0x599649082da9338bc0a11a1b1d30a4e02f6949a6a1bef1e76db60921ab166386",
          "transactionIndex": "0x4e",
          "logIndex": "0x54",
          "removed": false
        },
        {
          "address": "0xaa8e23fb1079ea71e0a56f48a2aa51851d8433d0",
          "topics": [
            "0x8c5be1e5ebec7d5bd14f71427d1e84f3dd0314c0f7b2291e5b200ac8c7c3b925",
            "0x0000000000000000000000000d7bce289d74790a4771e38b73f4cb56085cc296",
            "0x0000000000000000000000005cb77df5efab7568e13db1e341bc0d44e08f40f9"
          ],
          "data": "0x00000000000000000000000000000000000000000018d0bf423c03d8cc257378",
          "blockHash": "0x7fb851860c3c0b63b5d36ea30fb995cd03ad4e50b8af5423d02e89029910cd2e",
          "blockNumber": "0x65f80b",
          "transactionHash": "0x599649082da9338bc0a11a1b1d30a4e02f6949a6a1bef1e76db60921ab166386",
          "transactionIndex": "0x4e",
          "logIndex": "0x55",
          "removed": false
        }
      ],
      "logsBloom": "0x0000000000000000000000000000000000000000040000000000000400000000000000000000000000000000000100a000000000000000000000000000200000000004000000000000100008000000000000000000000000008010000000000004000000000000000000000000000000000000000000000100000010010000000000800009000000004000000000000000000000000000000000000000000000020004000000000000000000000000080000000000000010000000000000000000000002000000000000004000000000000100000000000000000000000000000010000000000000000000000000000004000000000000000000000000000000",
      "type": "0x2",
      "transactionHash": "0x599649082da9338bc0a11a1b1d30a4e02f6949a6a1bef1e76db60921ab166386",
      "transactionIndex": "0x4e",
      "blockHash": "0x7fb851860c3c0b63b5d36ea30fb995cd03ad4e50b8af5423d02e89029910cd2e",
      "blockNumber": "0x65f80b",
      "gasUsed": "0x26afa",
      "effectiveGasPrice": "0x6b3303c2",
      "from": "0x0d7bce289d74790a4771e38b73f4cb56085cc296",
      "to": "0x5cb77df5efab7568e13db1e341bc0d44e08f40f9",
      "contractAddress": null
    }
  ],
  "libraries": [],
  "pending": [],
  "returns": {},
  "timestamp": 1726213395,
  "chain": 11155111,
  "commit": "9af5f69"
}