{
  "transactions": [
    {
      "hash": "0x2355ffebcd71be03d0ee68bad3b2586a04c2e7ff1bdc267d242d9422080ebc2f",
      "transactionType": "CREATE",
      "contractName": "PoolSwapTest",
      "contractAddress": "0x4cd4b7447fd78747322dd0d2b0fbbca68f74a249",
      "function": null,
      "arguments": [
        "0xE9767C91c1546B0e89d757044b6045c6fb69AB38"
      ],
      "transaction": {
        "from": "0x0d7bce289d74790a4771e38b73f4cb56085cc296",
        "gas": "0x1bafdd",
        "value": "0x0",
        "input": "0x60a0604052348015600e575f80fd5b50604051611903380380611903833981016040819052602b91603b565b6001600160a01b03166080526066565b5f60208284031215604a575f80fd5b81516001600160a01b0381168114605f575f80fd5b9392505050565b6080516118486100bb5f395f8181606e0152818160d7015281816101ee01528181610300015281816109bb01528181610a1401528181610a9101528181610ae501528181610bfa0152610c2d01526118485ff3fe608060405260043610610033575f3560e01c80632229d0b414610037578063481c6a751461005d57806391dd7346146100a8575b5f80fd5b61004a6100453660046113f1565b6100d4565b6040519081526020015b60405180910390f35b348015610068575f80fd5b506100907f000000000000000000000000000000000000000000000000000000000000000081565b6040516001600160a01b039091168152602001610054565b3480156100b3575f80fd5b506100c76100c2366004611462565b6101e1565b60405161005491906114fe565b5f7f00000000000000000000000000000000000000000000000000000000000000006001600160a01b03166348c894916040518060a00160405280336001600160a01b03168152602001868152602001888152602001878152602001858152506040516020016101449190611517565b6040516020818303038152906040526040518263ffffffff1660e01b815260040161016f91906114fe565b5f604051808303815f875af115801561018a573d5f803e3d5ffd5b505050506040513d5f823e601f3d908101601f191682016040526101b191908101906115f7565b8060200190518101906101c4919061166c565b90504780156101d8576101d85f3383610b37565b50949350505050565b6060336001600160a01b037f00000000000000000000000000000000000000000000000000000000000000001614610217575f80fd5b5f61022483850185611683565b90505f61023c82604001515f0151835f015130610bd3565b925050505f610257836040015160200151845f015130610bd3565b92505050815f146102af5760405162461bcd60e51b815260206004820152601e60248201527f64656c74614265666f726530206973206e6f7420657175616c20746f2030000060448201526064015b60405180910390fd5b80156102fd5760405162461bcd60e51b815260206004820152601e60248201527f64656c74614265666f726531206973206e6f7420657175616c20746f2030000060448201526064016102a6565b5f7f00000000000000000000000000000000000000000000000000000000000000006001600160a01b031663f3cd914c8560400151866060015187608001516040518463ffffffff1660e01b815260040161035a9392919061173b565b6020604051808303815f875af1158015610376573d5f803e3d5ffd5b505050506040513d601f19601f8201168201806040525081019061039a919061166c565b90505f6103b285604001515f0151865f015130610bd3565b925050505f6103cd866040015160200151875f015130610bd3565b9250505085606001515f0151156106c7575f86606001516020015112156105565785606001516020015182121561047c5760405162461bcd60e51b815260206004820152604760248201527f64656c7461416674657230206973206e6f742067726561746572207468616e2060448201527f6f7220657175616c20746f20646174612e706172616d732e616d6f756e7453706064820152661958da599a595960ca1b608482015260a4016102a6565b816104878460801d90565b600f0b146104eb5760405162461bcd60e51b815260206004820152602b60248201527f64656c74612e616d6f756e74302829206973206e6f7420657175616c20746f2060448201526a064656c74614166746572360ac1b60648201526084016102a6565b5f8112156105515760405162461bcd60e51b815260206004820152602d60248201527f64656c7461416674657231206973206e6f742067726561746572207468616e2060448201526c06f7220657175616c20746f203609c1b60648201526084016102a6565b6109ab565b5f8213156105cc5760405162461bcd60e51b815260206004820152602d60248201527f64656c7461416674657230206973206e6f74206c657373207468616e206f722060448201527f657175616c20746f207a65726f0000000000000000000000000000000000000060648201526084016102a6565b806105d784600f0b90565b600f0b1461063b5760405162461bcd60e51b815260206004820152602b60248201527f64656c74612e616d6f756e74312829206973206e6f7420657175616c20746f2060448201526a64656c746141667465723160a81b60648201526084016102a6565b8560600151602001518113156105515760405162461bcd60e51b8152602060048201526044602482018190527f64656c7461416674657231206973206e6f74206c657373207468616e206f7220908201527f657175616c20746f20646174612e706172616d732e616d6f756e745370656369606482015263199a595960e21b608482015260a4016102a6565b5f866060015160200151121561083a578560600151602001518112156107655760405162461bcd60e51b815260206004820152604760248201527f64656c7461416674657231206973206e6f742067726561746572207468616e2060448201527f6f7220657175616c20746f20646174612e706172616d732e616d6f756e7453706064820152661958da599a595960ca1b608482015260a4016102a6565b8061077084600f0b90565b600f0b146107d45760405162461bcd60e51b815260206004820152602b60248201527f64656c74612e616d6f756e74312829206973206e6f7420657175616c20746f2060448201526a64656c746141667465723160a81b60648201526084016102a6565b5f8212156105515760405162461bcd60e51b815260206004820152602d60248201527f64656c7461416674657230206973206e6f742067726561746572207468616e2060448201526c06f7220657175616c20746f203609c1b60648201526084016102a6565b5f8113156108b05760405162461bcd60e51b815260206004820152602a60248201527f64656c7461416674657231206973206e6f74206c657373207468616e206f722060448201527f657175616c20746f20300000000000000000000000000000000000000000000060648201526084016102a6565b816108bb8460801d90565b600f0b1461091f5760405162461bcd60e51b815260206004820152602b60248201527f64656c74612e616d6f756e74302829206973206e6f7420657175616c20746f2060448201526a064656c74614166746572360ac1b60648201526084016102a6565b8560600151602001518213156109ab5760405162461bcd60e51b8152602060048201526044602482018190527f64656c7461416674657230206973206e6f74206c657373207468616e206f7220908201527f657175616c20746f20646174612e706172616d732e616d6f756e745370656369606482015263199a595960e21b608482015260a4016102a6565b5f821215610a04578551610a04907f0000000000000000000000000000000000000000000000000000000000000000906109e4856117d1565b6020808b0151015160408b0151516001600160a01b031693929190610c5f565b5f811215610a69578551610a69907f000000000000000000000000000000000000000000000000000000000000000090610a3d846117d1565b8960200151602001518a60400151602001516001600160a01b0316610c5f90949392919063ffffffff16565b5f821315610ab9578551602087015151604088015151610ab9926001600160a01b03909116917f000000000000000000000000000000000000000000000000000000000000000091908690610f43565b5f811315610b0d57855160208088015151604089015190910151610b0d926001600160a01b03909116917f000000000000000000000000000000000000000000000000000000000000000091908590610f43565b60408051602081018590520160405160208183030381529060405296505050505050505b92915050565b5f6001600160a01b038416610b6b575f805f8085875af1905080610b6657610b66638549db5960e01b8461102d565b610bcd565b60405163a9059cbb60e01b81526001600160a01b038416600482015282602482015260205f6044835f895af13d15601f3d1160015f511416171691505f81525f60208201525f60408201525080610bcd57610bcd632c4b17e760e21b8561102d565b50505050565b5f8080610be96001600160a01b03871686611060565b9250610c1e6001600160a01b0387167f0000000000000000000000000000000000000000000000000000000000000000611060565b9150610c546001600160a01b037f00000000000000000000000000000000000000000000000000000000000000001685886110ef565b905093509350939050565b8015610d0c57836001600160a01b031663f5298aca84610c8e886001600160a01b03166001600160a01b031690565b6040517fffffffff0000000000000000000000000000000000000000000000000000000060e085901b1681526001600160a01b0390921660048301526024820152604481018590526064015b5f604051808303815f87803b158015610cf1575f80fd5b505af1158015610d03573d5f803e3d5ffd5b50505050610f3c565b6001600160a01b038516610d8357836001600160a01b03166311da60b4836040518263ffffffff1660e01b815260040160206040518083038185885af1158015610d58573d5f803e3d5ffd5b50505050506040513d601f19601f82011682018060405250810190610d7d919061166c565b50610f3c565b604051632961046560e21b81526001600160a01b03868116600483015285169063a5841194906024015f604051808303815f87803b158015610dc3575f80fd5b505af1158015610dd5573d5f803e3d5ffd5b505050506001600160a01b0383163014610e67576040516323b872dd60e01b81526001600160a01b0384811660048301528581166024830152604482018490528616906323b872dd906064016020604051808303815f875af1158015610e3d573d5f803e3d5ffd5b505050506040513d601f19601f82011682018060405250810190610e6191906117f7565b50610ed9565b60405163a9059cbb60e01b81526001600160a01b0385811660048301526024820184905286169063a9059cbb906044016020604051808303815f875af1158015610eb3573d5f803e3d5ffd5b505050506040513d601f19601f82011682018060405250810190610ed791906117f7565b505b836001600160a01b03166311da60b46040518163ffffffff1660e01b81526004016020604051808303815f875af1158015610f16573d5f803e3d5ffd5b505050506040513d601f19601f82011682018060405250810190610f3a919061166c565b505b5050505050565b80610f8557604051630b0d9c0960e01b81526001600160a01b038681166004830152848116602483015260448201849052851690630b0d9c0990606401610cda565b836001600160a01b031663156e29f684610fae886001600160a01b03166001600160a01b031690565b6040517fffffffff0000000000000000000000000000000000000000000000000000000060e085901b1681526001600160a01b0390921660048301526024820152604481018590526064015f604051808303815f87803b158015611010575f80fd5b505af1158015611022573d5f803e3d5ffd5b505050505050505050565b3d60405183815282600482015260406024820152816044820152815f606483013e602080601f8401040260640191508181fd5b5f6001600160a01b03831661108057506001600160a01b03811631610b31565b6040516370a0823160e01b81526001600160a01b0383811660048301528416906370a0823190602401602060405180830381865afa1580156110c4573d5f803e3d5ffd5b505050506040513d601f19601f820116820180604052508101906110e8919061166c565b9050610b31565b5f806001600160a01b0384165f526001600160a01b03831660205260405f209050846001600160a01b031663f135baaa826040518263ffffffff1660e01b815260040161113e91815260200190565b602060405180830381865afa158015611159573d5f803e3d5ffd5b505050506040513d601f19601f8201168201806040525081019061117d919061166c565b95945050505050565b634e487b7160e01b5f52604160045260245ffd5b60405160a0810167ffffffffffffffff811182821017156111bd576111bd611186565b60405290565b604051601f8201601f1916810167ffffffffffffffff811182821017156111ec576111ec611186565b604052919050565b6001600160a01b0381168114611208575f80fd5b50565b8035611216816111f4565b919050565b5f60a0828403121561122b575f80fd5b61123361119a565b90508135611240816111f4565b81526020820135611250816111f4565b6020820152604082013562ffffff8116811461126a575f80fd5b60408201526060820135600281900b8114611283575f80fd5b60608201526112946080830161120b565b608082015292915050565b8015158114611208575f80fd5b5f606082840312156112bc575f80fd5b6040516060810167ffffffffffffffff811182821017156112df576112df611186565b60405290508082356112f08161129f565b815260208381013590820152604083013561130a816111f4565b6040919091015292915050565b5f60408284031215611327575f80fd5b6040805190810167ffffffffffffffff8111828210171561134a5761134a611186565b604052905080823561135b8161129f565b8152602083013561136b8161129f565b6020919091015292915050565b5f67ffffffffffffffff82111561139157611391611186565b50601f01601f191660200190565b5f82601f8301126113ae575f80fd5b81356113c16113bc82611378565b6111c3565b8181528460208386010111156113d5575f80fd5b816020850160208301375f918101602001919091529392505050565b5f805f806101608587031215611405575f80fd5b61140f868661121b565b935061141e8660a087016112ac565b925061142e866101008701611317565b915061014085013567ffffffffffffffff81111561144a575f80fd5b6114568782880161139f565b91505092959194509250565b5f8060208385031215611473575f80fd5b823567ffffffffffffffff811115611489575f80fd5b8301601f81018513611499575f80fd5b803567ffffffffffffffff8111156114af575f80fd5b8560208284010111156114c0575f80fd5b6020919091019590945092505050565b5f81518084528060208401602086015e5f602082860101526020601f19601f83011685010191505092915050565b602081525f61151060208301846114d0565b9392505050565b602081526001600160a01b0382511660208201525f60208301518051151560408401526020810151151560608401525060408301516115a760808401826001600160a01b0381511682526001600160a01b03602082015116602083015262ffffff6040820151166040830152606081015160020b60608301526001600160a01b0360808201511660808301525050565b506060830151805115156101208401526020810151610140840152604001516001600160a01b03166101608301526080830151610180808401526115ef6101a08401826114d0565b949350505050565b5f60208284031215611607575f80fd5b815167ffffffffffffffff81111561161d575f80fd5b8201601f8101841361162d575f80fd5b805161163b6113bc82611378565b81815285602083850101111561164f575f80fd5b8160208401602083015e5f91810160200191909152949350505050565b5f6020828403121561167c575f80fd5b5051919050565b5f60208284031215611693575f80fd5b813567ffffffffffffffff8111156116a9575f80fd5b820161018081850312156116bb575f80fd5b6116c361119a565b81356116ce816111f4565b81526116dd8560208401611317565b60208201526116ef856060840161121b565b60408201526117028561010084016112ac565b606082015261016082013567ffffffffffffffff811115611721575f80fd5b61172d8682850161139f565b608083015250949350505050565b61179381856001600160a01b0381511682526001600160a01b03602082015116602083015262ffffff6040820151166040830152606081015160020b60608301526001600160a01b0360808201511660808301525050565b8251151560a0820152602083015160c082015260408301516001600160a01b031660e08201526101206101008201525f61117d6101208301846114d0565b5f600160ff1b82016117f157634e487b7160e01b5f52601160045260245ffd5b505f0390565b5f60208284031215611807575f80fd5b81516115108161129f56fea2646970667358221220b1b0654caa722efc9e72485a8029129294fa80475ec0a31bdb91821223982b2c64736f6c634300081a0033000000000000000000000000e9767c91c1546b0e89d757044b6045c6fb69ab38",
        "nonce": "0x57f",
        "chainId": "0xaa36a7"
      },
      "additionalContracts": [],
      "isFixedGasLimit": false
    },
    {
      "hash": "0xd569bda663e6dc90ed90b6cd190ec26120d8468bf82bf324183f10b277bdf464",
      "transactionType": "CALL",
      "contractName": null,
      "contractAddress": "0x7b79995e5f793a07bc00c21412e50ecae098e7f9",
      "function": "approve(address,uint256)",
      "arguments": [
        "0x4Cd4b7447fD78747322dD0d2b0FBBCa68f74a249",
        "115792089237316195423570985008687907853269984665640564039457584007913129639935"
      ],
      "transaction": {
        "from": "0x0d7bce289d74790a4771e38b73f4cb56085cc296",
        "to": "0x7b79995e5f793a07bc00c21412e50ecae098e7f9",
        "gas": "0xfa0c",
        "value": "0x0",
        "input": "0x095ea7b30000000000000000000000004cd4b7447fd78747322dd0d2b0fbbca68f74a249ffffffffffffffffffffffffffffffffffffffffffffffffffffffffffffffff",
        "nonce": "0x580",
        "chainId": "0xaa36a7"
      },
      "additionalContracts": [],
      "isFixedGasLimit": false
    },
    {
      "hash": "0x3161354a45940e2be4f7fd2338cd493a8925bbc6efdf86921a1f8e7fe37d5f0d",
      "transactionType": "CALL",
      "contractName": null,
      "contractAddress": "0xaa8e23fb1079ea71e0a56f48a2aa51851d8433d0",
      "function": "approve(address,uint256)",
      "arguments": [
        "0x4Cd4b7447fD78747322dD0d2b0FBBCa68f74a249",
        "115792089237316195423570985008687907853269984665640564039457584007913129639935"
      ],
      "transaction": {
        "from": "0x0d7bce289d74790a4771e38b73f4cb56085cc296",
        "to": "0xaa8e23fb1079ea71e0a56f48a2aa51851d8433d0",
        "gas": "0x10a01",
        "value": "0x0",
        "input": "0x095ea7b30000000000000000000000004cd4b7447fd78747322dd0d2b0fbbca68f74a249ffffffffffffffffffffffffffffffffffffffffffffffffffffffffffffffff",
        "nonce": "0x581",
        "chainId": "0xaa36a7"
      },
      "additionalContracts": [],
      "isFixedGasLimit": false
    },
    {
      "hash": "0xf1e9b36c0c48f2c22c9326c7a53c11e5522884af1625757ab06a36f21459827b",
      "transactionType": "CALL",
      "contractName": "PoolSwapTest",
      "contractAddress": "0x4cd4b7447fd78747322dd0d2b0fbbca68f74a249",
      "function": "swap((address,address,uint24,int24,address),(bool,int256,uint160),(bool,bool),bytes)",
      "arguments": [
        "(0x7b79995e5f793A07Bc00c21412e50Ecae098E7f9, 0xaA8E23Fb1079EA71e0a56F48a2aA51851D8433D0, 3000, 60, 0x0000000000000000000000000000000000000000)",
        "(true, 1000000, 4295128740)",
        "(false, false)",
        "0x"
      ],
      "transaction": {
        "from": "0x0d7bce289d74790a4771e38b73f4cb56085cc296",
        "to": "0x4cd4b7447fd78747322dd0d2b0fbbca68f74a249",
        "gas": "0x33174",
        "value": "0x0",
        "input": "0x2229d0b40000000000000000000000007b79995e5f793a07bc00c21412e50ecae098e7f9000000000000000000000000aa8e23fb1079ea71e0a56f48a2aa51851d8433d00000000000000000000000000000000000000000000000000000000000000bb8000000000000000000000000000000000000000000000000000000000000003c0000000000000000000000000000000000000000000000000000000000000000000000000000000000000000000000000000000000000000000000000000000100000000000000000000000000000000000000000000000000000000000f424000000000000000000000000000000000000000000000000000000001000276a40000000000000000000000000000000000000000000000000000000000000000000000000000000000000000000000000000000000000000000000000000000000000000000000000000000000000000000000000000000000000000000001600000000000000000000000000000000000000000000000000000000000000000",
        "nonce": "0x582",
        "chainId": "0xaa36a7"
      },
      "additionalContracts": [],
      "isFixedGasLimit": false
    }
  ],
  "receipts": [
    {
      "status": "0x1",
      "cumulativeGasUsed": "0xd6deaa",
      "logs": [],
      "logsBloom": "0x00000000000000000000000000000000000000000000000000000000000000000000000000000000000000000000000000000000000000000000000000000000000000000000000000000000000000000000000000000000000000000000000000000000000000000000000000000000000000000000000000000000000000000000000000000000000000000000000000000000000000000000000000000000000000000000000000000000000000000000000000000000000000000000000000000000000000000000000000000000000000000000000000000000000000000000000000000000000000000000000000000000000000000000000000000000",
      "type": "0x2",
      "transactionHash": "0x2355ffebcd71be03d0ee68bad3b2586a04c2e7ff1bdc267d242d9422080ebc2f",
      "transactionIndex": "0x44",
      "blockHash": "0xee9fe3d95fd2ea8dd64adf113ba7add9078effdbe156b0c29e4656ad42e392d8",
      "blockNumber": "0x65f86a",
      "gasUsed": "0x154c34",
      "effectiveGasPrice": "0xf3d49f5d",
      "from": "0x0d7bce289d74790a4771e38b73f4cb56085cc296",
      "to": null,
      "contractAddress": "0x4cd4b7447fd78747322dd0d2b0fbbca68f74a249"
    },
    {
      "status": "0x1",
      "cumulativeGasUsed": "0xd793b2",
      "logs": [
        {
          "address": "0x7b79995e5f793a07bc00c21412e50ecae098e7f9",
          "topics": [
            "0x8c5be1e5ebec7d5bd14f71427d1e84f3dd0314c0f7b2291e5b200ac8c7c3b925",
            "0x0000000000000000000000000d7bce289d74790a4771e38b73f4cb56085cc296",
            "0x0000000000000000000000004cd4b7447fd78747322dd0d2b0fbbca68f74a249"
          ],
          "data": "0xffffffffffffffffffffffffffffffffffffffffffffffffffffffffffffffff",
          "blockHash": "0xee9fe3d95fd2ea8dd64adf113ba7add9078effdbe156b0c29e4656ad42e392d8",
          "blockNumber": "0x65f86a",
          "transactionHash": "0xd569bda663e6dc90ed90b6cd190ec26120d8468bf82bf324183f10b277bdf464",
          "transactionIndex": "0x45",
          "logIndex": "0x9a",
          "removed": false
        }
      ],
      "logsBloom": "0x00000000000000000000000000000000000000000100000000000004000000000000000000000000000000000001000000000000000000000000000000200000000000000000000000000000000000000000000000000000000000000000000000000000000000000000000000000000000000000000000000000000000000000000000008000000000000000000000000800002000000000000000000000000020000000000000000000000000000080000000000000000000000000000000000000002000000000000000000000000000100000000000000000000000000000010000000000000000000000000000000000000000000000000000000000000",
      "type": "0x2",
      "transactionHash": "0xd569bda663e6dc90ed90b6cd190ec26120d8468bf82bf324183f10b277bdf464",
      "transactionIndex": "0x45",
      "blockHash": "0xee9fe3d95fd2ea8dd64adf113ba7add9078effdbe156b0c29e4656ad42e392d8",
      "blockNumber": "0x65f86a",
      "gasUsed": "0xb508",
      "effectiveGasPrice": "0xf3d49f5d",
      "from": "0x0d7bce289d74790a4771e38b73f4cb56085cc296",
      "to": "0x7b79995e5f793a07bc00c21412e50ecae098e7f9",
      "contractAddress": null
    },
    {
      "status": "0x1",
      "cumulativeGasUsed": "0xd84995",
      "logs": [
        {
          "address": "0xaa8e23fb1079ea71e0a56f48a2aa51851d8433d0",
          "topics": [
            "0x8c5be1e5ebec7d5bd14f71427d1e84f3dd0314c0f7b2291e5b200ac8c7c3b925",
            "0x0000000000000000000000000d7bce289d74790a4771e38b73f4cb56085cc296",
            "0x0000000000000000000000004cd4b7447fd78747322dd0d2b0fbbca68f74a249"
          ],
          "data": "0xffffffffffffffffffffffffffffffffffffffffffffffffffffffffffffffff",
          "blockHash": "0xee9fe3d95fd2ea8dd64adf113ba7add9078effdbe156b0c29e4656ad42e392d8",
          "blockNumber": "0x65f86a",
          "transactionHash": "0x3161354a45940e2be4f7fd2338cd493a8925bbc6efdf86921a1f8e7fe37d5f0d",
          "transactionIndex": "0x46",
          "logIndex": "0x9b",
          "removed": false
        }
      ],
      "logsBloom": "0x00000000000000000000000000000000000000000100000000000000000000000000000000000000000000000001002000000000000000000000000000200000000000000000000000000000000000000000000000000000000000000000000004000000000000000000000000000000000000000000000000000000000000000000000008000000004000000000000000800002000000000000000000000000020000000000000000000000000000000000000000000000000000000000000000000000000000000000000000000000000100000000000000000000000000000010000000000000000000000000000000000000000000000000000000000000",
      "type": "0x2",
      "transactionHash": "0x3161354a45940e2be4f7fd2338cd493a8925bbc6efdf86921a1f8e7fe37d5f0d",
      "transactionIndex": "0x46",
      "blockHash": "0xee9fe3d95fd2ea8dd64adf113ba7add9078effdbe156b0c29e4656ad42e392d8",
      "blockNumber": "0x65f86a",
      "gasUsed": "0xb5e3",
      "effectiveGasPrice": "0xf3d49f5d",
      "from": "0x0d7bce289d74790a4771e38b73f4cb56085cc296",
      "to": "0xaa8e23fb1079ea71e0a56f48a2aa51851d8433d0",
      "contractAddress": null
    },
    {
      "status": "0x1",
      "cumulativeGasUsed": "0xda7887",
      "logs": [
        {
          "address": "0xe9767c91c1546b0e89d757044b6045c6fb69ab38",
          "topics": [
            "0x40e9cecb9f5f1f1c5b9c97dec2917b7ee92e57ba5563708daca94dd84ad7112f",
            "0xdef4905c87baea32386d12b45684f262d62a164e596d6ef860ff4c2ea23200f8",
            "0x0000000000000000000000004cd4b7447fd78747322dd0d2b0fbbca68f74a249"
          ],
          "data": "0xfffffffffffffffffffffffffffffffffffffffffffffffffffffffffff0b1f800000000000000000000000000000000000000000000000000000000000f42400000000000000000000000000000000000000000ffffac1d29dc725c3dee78180000000000000000000000000000000000000000000000000000002e90edd000ffffffffffffffffffffffffffffffffffffffffffffffffffffffffffffffff0000000000000000000000000000000000000000000000000000000000000bb8",
          "blockHash": "0xee9fe3d95fd2ea8dd64adf113ba7add9078effdbe156b0c29e4656ad42e392d8",
          "blockNumber": "0x65f86a",
          "transactionHash": "0xf1e9b36c0c48f2c22c9326c7a53c11e5522884af1625757ab06a36f21459827b",
          "transactionIndex": "0x47",
          "logIndex": "0x9c",
          "removed": false
        },
        {
          "address": "0x7b79995e5f793a07bc00c21412e50ecae098e7f9",
          "topics": [
            "0xddf252ad1be2c89b69c2b068fc378daa952ba7f163c4a11628f55a4df523b3ef",
            "0x0000000000000000000000000d7bce289d74790a4771e38b73f4cb56085cc296",
            "0x000000000000000000000000e9767c91c1546b0e89d757044b6045c6fb69ab38"
          ],
          "data": "0x00000000000000000000000000000000000000000000000000000000000f4e08",
          "blockHash": "0xee9fe3d95fd2ea8dd64adf113ba7add9078effdbe156b0c29e4656ad42e392d8",
          "blockNumber": "0x65f86a",
          "transactionHash": "0xf1e9b36c0c48f2c22c9326c7a53c11e5522884af1625757ab06a36f21459827b",
          "transactionIndex": "0x47",
          "logIndex": "0x9d",
          "removed": false
        },
        {
          "address": "0xaa8e23fb1079ea71e0a56f48a2aa51851d8433d0",
          "topics": [
            "0xddf252ad1be2c89b69c2b068fc378daa952ba7f163c4a11628f55a4df523b3ef",
            "0x000000000000000000000000e9767c91c1546b0e89d757044b6045c6fb69ab38",
            "0x0000000000000000000000000d7bce289d74790a4771e38b73f4cb56085cc296"
          ],
          "data": "0x00000000000000000000000000000000000000000000000000000000000f4240",
          "blockHash": "0xee9fe3d95fd2ea8dd64adf113ba7add9078effdbe156b0c29e4656ad42e392d8",
          "blockNumber": "0x65f86a",
          "transactionHash": "0xf1e9b36c0c48f2c22c9326c7a53c11e5522884af1625757ab06a36f21459827b",
          "transactionIndex": "0x47",
          "logIndex": "0x9e",
          "removed": false
        }
      ],
      "logsBloom": "0x0000000000000000000000000000000000000000050000000000000400000000000000000000000000000000000100a000000000040000000000000000000000000004000000000000100008000000000000000000000020008000000000000004000000000000000000000000000000000000000000000100000010010000000000000008000000004000000000000000800002000000000000000000000000000000000000000000000000000000080000000000000000000000000000000000000002000000000000004000000000000100000000000000000000000000000000000000000000004000000000000000000000000000000000000000000000",
      "type": "0x2",
      "transactionHash": "0xf1e9b36c0c48f2c22c9326c7a53c11e5522884af1625757ab06a36f21459827b",
      "transactionIndex": "0x47",
      "blockHash": "0xee9fe3d95fd2ea8dd64adf113ba7add9078effdbe156b0c29e4656ad42e392d8",
      "blockNumber": "0x65f86a",
      "gasUsed": "0x22ef2",
      "effectiveGasPrice": "0xf3d49f5d",
      "from": "0x0d7bce289d74790a4771e38b73f4cb56085cc296",
      "to": "0x4cd4b7447fd78747322dd0d2b0fbbca68f74a249",
      "contractAddress": null
    }
  ],
  "libraries": [],
  "pending": [],
  "returns": {},
  "timestamp": 1726214689,
  "chain": 11155111,
  "commit": "9af5f69"
}