{
  "transactions": [
    {
      "hash": "0x97805bd635bc477b129d449e92bf5755aeb83362c5cf401ab6c13e975c25eee7",
      "transactionType": "CALL",
      "contractName": null,
      "contractAddress": "0xe9767c91c1546b0e89d757044b6045c6fb69ab38",
      "function": "initialize((address,address,uint24,int24,address),uint160,bytes)",
      "arguments": [
        "(0x1c7D4B196Cb0C7B01d743Fbc6116a902379C7238, 0x7b79995e5f793A07Bc00c21412e50Ecae098E7f9, 3000, 60, 0x0000000000000000000000000000000000000000)",
        "79228162514264337593543950336",
        "0x"
      ],
      "transaction": {
        "from": "0x0d7bce289d74790a4771e38b73f4cb56085cc296",
        "to": "0xe9767c91c1546b0e89d757044b6045c6fb69ab38",
        "gas": "0x129dc",
        "value": "0x0",
        "input": "0x695c5bf50000000000000000000000001c7d4b196cb0c7b01d743fbc6116a902379c72380000000000000000000000007b79995e5f793a07bc00c21412e50ecae098e7f90000000000000000000000000000000000000000000000000000000000000bb8000000000000000000000000000000000000000000000000000000000000003c0000000000000000000000000000000000000000000000000000000000000000000000000000000000000000000000000000000100000000000000000000000000000000000000000000000000000000000000000000000000000000000000e00000000000000000000000000000000000000000000000000000000000000000",
        "nonce": "0x575",
        "chainId": "0xaa36a7"
      },
      "additionalContracts": [],
      "isFixedGasLimit": false
    }
  ],
  "receipts": [
    {
      "status": "0x1",
      "cumulativeGasUsed": "0x979218",
      "logs": [
        {
          "address": "0xe9767c91c1546b0e89d757044b6045c6fb69ab38",
          "topics": [
            "0xdd466e674ea557f56295e2d0218a125ea4b4f0f6f3307b95f85e6110838d6438",
            "0x5984798c549ae88596dfdb82696739d9080d7dc074a8b0ba58693c039944d9f2",
            "0x0000000000000000000000001c7d4b196cb0c7b01d743fbc6116a902379c7238",
            "0x0000000000000000000000007b79995e5f793a07bc00c21412e50ecae098e7f9"
          ],
          "data": "0x0000000000000000000000000000000000000000000000000000000000000bb8000000000000000000000000000000000000000000000000000000000000003c000000000000000000000000000000000000000000000000000000000000000000000000000000000000000000000000000000010000000000000000000000000000000000000000000000000000000000000000000000000000000000000000",
          "blockHash": "0xbec60afb6916e3eba002c6398b8056f9ec213e243b7f700b1a215c62bde263f9",
          "blockNumber": "0x65f7ca",
          "transactionHash": "0x97805bd635bc477b129d449e92bf5755aeb83362c5cf401ab6c13e975c25eee7",
          "transactionIndex": "0x58",
          "logIndex": "0x89",
          "removed": false
        }
      ],
      "logsBloom": "0x00000000002000000000000000000000000000000000000000000000000000000000000000000002000000000000000000000000000004000000000000000000100004000000000000100048000000000000004000000000000000000000000000000000000000000000000000000000000000000000000000000000000000000000000000000008000000000000000000000001000000000000000000200000000000000000000000000000000000000000008000000000000000000000000000000000000000000000040000000000000000000000000080000000000000000000000000000000000000000000000000000000000000000000000000000000",
      "type": "0x2",
      "transactionHash": "0x97805bd635bc477b129d449e92bf5755aeb83362c5cf401ab6c13e975c25eee7",
      "transactionIndex": "0x58",
      "blockHash": "0xbec60afb6916e3eba002c6398b8056f9ec213e243b7f700b1a215c62bde263f9",
      "blockNumber": "0x65f7ca",
      "gasUsed": "0xd7a6",
      "effectiveGasPrice": "0x5f05d008",
      "from": "0x0d7bce289d74790a4771e38b73f4cb56085cc296",
      "to": "0xe9767c91c1546b0e89d757044b6045c6fb69ab38",
      "contractAddress": null
    }
  ],
  "libraries": [],
  "pending": [],
  "returns": {},
  "timestamp": 1726212517,
  "chain": 11155111,
  "commit": "9af5f69"
}