{
  "transactions": [
    {
      "hash": "0xe6ec6609301aff2370f3c4e6e24b91e4b20d2a9257b5b6d41eebcd332c6158c4",
      "transactionType": "CALL",
      "contractName": null,
      "contractAddress": "0xe9767c91c1546b0e89d757044b6045c6fb69ab38",
      "function": "initialize((address,address,uint24,int24,address),uint160,bytes)",
      "arguments": [
        "(0x7b79995e5f793A07Bc00c21412e50Ecae098E7f9, 0xaA8E23Fb1079EA71e0a56F48a2aA51851D8433D0, 3000, 60, 0x0000000000000000000000000000000000000000)",
        "79228162514264337593543950336",
        "0x"
      ],
      "transaction": {
        "from": "0x0d7bce289d74790a4771e38b73f4cb56085cc296",
        "to": "0xe9767c91c1546b0e89d757044b6045c6fb69ab38",
        "gas": "0x129dc",
        "value": "0x0",
        "input": "0x695c5bf50000000000000000000000007b79995e5f793a07bc00c21412e50ecae098e7f9000000000000000000000000aa8e23fb1079ea71e0a56f48a2aa51851d8433d00000000000000000000000000000000000000000000000000000000000000bb8000000000000000000000000000000000000000000000000000000000000003c0000000000000000000000000000000000000000000000000000000000000000000000000000000000000000000000000000000100000000000000000000000000000000000000000000000000000000000000000000000000000000000000e00000000000000000000000000000000000000000000000000000000000000000",
        "nonce": "0x573",
        "chainId": "0xaa36a7"
      },
      "additionalContracts": [],
      "isFixedGasLimit": false
    }
  ],
  "receipts": [
    {
      "status": "0x1",
      "cumulativeGasUsed": "0xb9c3e8",
      "logs": [
        {
          "address": "0xe9767c91c1546b0e89d757044b6045c6fb69ab38",
          "topics": [
            "0xdd466e674ea557f56295e2d0218a125ea4b4f0f6f3307b95f85e6110838d6438",
            "0xdef4905c87baea32386d12b45684f262d62a164e596d6ef860ff4c2ea23200f8",
            "0x0000000000000000000000007b79995e5f793a07bc00c21412e50ecae098e7f9",
            "0x000000000000000000000000aa8e23fb1079ea71e0a56f48a2aa51851d8433d0"
          ],
          "data": "0x0000000000000000000000000000000000000000000000000000000000000bb8000000000000000000000000000000000000000000000000000000000000003c000000000000000000000000000000000000000000000000000000000000000000000000000000000000000000000000000000010000000000000000000000000000000000000000000000000000000000000000000000000000000000000000",
          "blockHash": "0xdad3489dcdc1e433765f40fb187bc6eb1806c9ce436cc38657537484945889fe",
          "blockNumber": "0x65f79b",
          "transactionHash": "0xe6ec6609301aff2370f3c4e6e24b91e4b20d2a9257b5b6d41eebcd332c6158c4",
          "transactionIndex": "0x61",
          "logIndex": "0x82",
          "removed": false
        }
      ],
      "logsBloom": "0x00000000000000000000000000000000000000000400000000000000000000000000000000000002000000000000000000000000000000000000000000000000000004000000000000100048000000000000004000000000008000000000000000000000000000000000000080000000000000000000000000000000000000000000000000000008000000000000000000000001000000000000000000200000000000000000000000000000000000000000000000000000000004000000000000000000000000000000004000000000000000000000000000000000000000000000000000000000000000000000000000010000000000000000000000000000",
      "type": "0x2",
      "transactionHash": "0xe6ec6609301aff2370f3c4e6e24b91e4b20d2a9257b5b6d41eebcd332c6158c4",
      "transactionIndex": "0x61",
      "blockHash": "0xdad3489dcdc1e433765f40fb187bc6eb1806c9ce436cc38657537484945889fe",
      "blockNumber": "0x65f79b",
      "gasUsed": "0xd7a6",
      "effectiveGasPrice": "0x3d07a869",
      "from": "0x0d7bce289d74790a4771e38b73f4cb56085cc296",
      "to": "0xe9767c91c1546b0e89d757044b6045c6fb69ab38",
      "contractAddress": null
    }
  ],
  "libraries": [],
  "pending": [],
  "returns": {},
  "timestamp": 1726211908,
  "chain": 11155111,
  "commit": "9af5f69"
}