{
  "transactions": [
    {
      "hash": "0xe61991ce3303412a00ea768832bb8e8fbaebf3cf5dcac8507eb85dad62cf4932",
      "transactionType": "CALL",
      "contractName": null,
      "contractAddress": "0x7b79995e5f793a07bc00c21412e50ecae098e7f9",
      "function": "approve(address,uint256)",
      "arguments": [
        "0xdaE97900D4B184c5D2012dcdB658c008966466DD",
        "30000000000000000000000000"
      ],
      "transaction": {
        "from": "0x0d7bce289d74790a4771e38b73f4cb56085cc296",
        "to": "0x7b79995e5f793a07bc00c21412e50ecae098e7f9",
        "gas": "0x8d0f",
        "value": "0x0",
        "input": "0x095ea7b3000000000000000000000000dae97900d4b184c5d2012dcdb658c008966466dd00000000000000000000000000000000000000000018d0bf423c03d8de000000",
        "nonce": "0x570",
        "chainId": "0xaa36a7"
      },
      "additionalContracts": [],
      "isFixedGasLimit": false
    },
    {
      "hash": "0x2dcd9d4a047275f0d6a9913afac8c9dea9e2cd4d969d5ff07153cbe401247833",
      "transactionType": "CALL",
      "contractName": null,
      "contractAddress": "0xaa8e23fb1079ea71e0a56f48a2aa51851d8433d0",
      "function": "approve(address,uint256)",
      "arguments": [
        "0xdaE97900D4B184c5D2012dcdB658c008966466DD",
        "30000000000000000000000000"
      ],
      "transaction": {
        "from": "0x0d7bce289d74790a4771e38b73f4cb56085cc296",
        "to": "0xaa8e23fb1079ea71e0a56f48a2aa51851d8433d0",
        "gas": "0x969b",
        "value": "0x0",
        "input": "0x095ea7b3000000000000000000000000dae97900d4b184c5d2012dcdb658c008966466dd00000000000000000000000000000000000000000018d0bf423c03d8de000000",
        "nonce": "0x571",
        "chainId": "0xaa36a7"
      },
      "additionalContracts": [],
      "isFixedGasLimit": false
    },
    {
      "hash": "0xe6a1441d086acf60c585c3743a2f98f9ba003db1993cd9be5931da1ed574b4cb",
      "transactionType": "CALL",
      "contractName": "PoolModifyLiquidityTest",
      "contractAddress": "0xdae97900d4b184c5d2012dcdb658c008966466dd",
      "function": "modifyLiquidity((address,address,uint24,int24,address),(int24,int24,int256,bytes32),bytes)",
      "arguments": [
        "(0x7b79995e5f793A07Bc00c21412e50Ecae098E7f9, 0xaA8E23Fb1079EA71e0a56F48a2aA51851D8433D0, 3000, 60, 0x0000000000000000000000000000000000000000)",
        "(-60, 60, 100000000000, 0x0000000000000000000000000000000000000000000000000000000000000000)",
        "0x"
      ],
      "transaction": {
        "from": "0x0d7bce289d74790a4771e38b73f4cb56085cc296",
        "to": "0xdae97900d4b184c5d2012dcdb658c008966466dd",
        "gas": "0x7e7d",
        "value": "0x0",
        "input": "0x5a6bcfda0000000000000000000000007b79995e5f793a07bc00c21412e50ecae098e7f9000000000000000000000000aa8e23fb1079ea71e0a56f48a2aa51851d8433d00000000000000000000000000000000000000000000000000000000000000bb8000000000000000000000000000000000000000000000000000000000000003c0000000000000000000000000000000000000000000000000000000000000000ffffffffffffffffffffffffffffffffffffffffffffffffffffffffffffffc4000000000000000000000000000000000000000000000000000000000000003c000000000000000000000000000000000000000000000000000000174876e800000000000000000000000000000000000000000000000000000000000000000000000000000000000000000000000000000000000000000000000000000001400000000000000000000000000000000000000000000000000000000000000000",
        "nonce": "0x572",
        "chainId": "0xaa36a7"
      },
      "additionalContracts": [],
      "isFixedGasLimit": false
    }
  ],
  "receipts": [
    {
      "status": "0x1",
      "cumulativeGasUsed": "0x112e959",
      "logs": [
        {
          "address": "0x7b79995e5f793a07bc00c21412e50ecae098e7f9",
          "topics": [
            "0x8c5be1e5ebec7d5bd14f71427d1e84f3dd0314c0f7b2291e5b200ac8c7c3b925",
            "0x0000000000000000000000000d7bce289d74790a4771e38b73f4cb56085cc296",
            "0x000000000000000000000000dae97900d4b184c5d2012dcdb658c008966466dd"
          ],
          "data": "0x00000000000000000000000000000000000000000018d0bf423c03d8de000000",
          "blockHash": "0x9876acd4018f952d480aa31147f183cb0afc570d2e194864aa0040b0302c20ec",
          "blockNumber": "0x65ebac",
          "transactionHash": "0xe61991ce3303412a00ea768832bb8e8fbaebf3cf5dcac8507eb85dad62cf4932",
          "transactionIndex": "0x4f",
          "logIndex": "0x78",
          "removed": false
        }
      ],
      "logsBloom": "0x00000000000000000000000000000000000000000000000000000004000000000400000000000000000000000001000000000000000000000000000000200000000000000000000000000000000000000000000000000020000000000000000000000000000000000000000000000000000000000000000000000000000000000000000008000000000000200000000000000000000000000000000000000000020000000000000000000000000000080000000000000000000000000000000000000002000000000000000000000000000100000000000000000000000000000010000000000000000000000000000000000000000000000000000000000000",
      "type": "0x2",
      "transactionHash": "0xe61991ce3303412a00ea768832bb8e8fbaebf3cf5dcac8507eb85dad62cf4932",
      "transactionIndex": "0x4f",
      "blockHash": "0x9876acd4018f952d480aa31147f183cb0afc570d2e194864aa0040b0302c20ec",
      "blockNumber": "0x65ebac",
      "gasUsed": "0x6620",
      "effectiveGasPrice": "0x207dc19f",
      "from": "0x0d7bce289d74790a4771e38b73f4cb56085cc296",
      "to": "0x7b79995e5f793a07bc00c21412e50ecae098e7f9",
      "contractAddress": null
    },
    {
      "status": "0x1",
      "cumulativeGasUsed": "0x1135054",
      "logs": [
        {
          "address": "0xaa8e23fb1079ea71e0a56f48a2aa51851d8433d0",
          "topics": [
            "0x8c5be1e5ebec7d5bd14f71427d1e84f3dd0314c0f7b2291e5b200ac8c7c3b925",
            "0x0000000000000000000000000d7bce289d74790a4771e38b73f4cb56085cc296",
            "0x000000000000000000000000dae97900d4b184c5d2012dcdb658c008966466dd"
          ],
          "data": "0x00000000000000000000000000000000000000000018d0bf423c03d8de000000",
          "blockHash": "0x9876acd4018f952d480aa31147f183cb0afc570d2e194864aa0040b0302c20ec",
          "blockNumber": "0x65ebac",
          "transactionHash": "0x2dcd9d4a047275f0d6a9913afac8c9dea9e2cd4d969d5ff07153cbe401247833",
          "transactionIndex": "0x50",
          "logIndex": "0x79",
          "removed": false
        }
      ],
      "logsBloom": "0x00000000000000000000000000000000000000000000000000000000000000000400000000000000000000000001002000000000000000000000000000200000000000000000000000000000000000000000000000000020000000000000000004000000000000000000000000000000000000000000000000000000000000000000000008000000004000200000000000000000000000000000000000000000020000000000000000000000000000000000000000000000000000000000000000000000000000000000000000000000000100000000000000000000000000000010000000000000000000000000000000000000000000000000000000000000",
      "type": "0x2",
      "transactionHash": "0x2dcd9d4a047275f0d6a9913afac8c9dea9e2cd4d969d5ff07153cbe401247833",
      "transactionIndex": "0x50",
      "blockHash": "0x9876acd4018f952d480aa31147f183cb0afc570d2e194864aa0040b0302c20ec",
      "blockNumber": "0x65ebac",
      "gasUsed": "0x66fb",
      "effectiveGasPrice": "0x207dc19f",
      "from": "0x0d7bce289d74790a4771e38b73f4cb56085cc296",
      "to": "0xaa8e23fb1079ea71e0a56f48a2aa51851d8433d0",
      "contractAddress": null
    },
    {
      "status": "0x1",
      "cumulativeGasUsed": "0x113abe8",
      "logs": [],
      "logsBloom": "0x00000000000000000000000000000000000000000000000000000000000000000000000000000000000000000000000000000000000000000000000000000000000000000000000000000000000000000000000000000000000000000000000000000000000000000000000000000000000000000000000000000000000000000000000000000000000000000000000000000000000000000000000000000000000000000000000000000000000000000000000000000000000000000000000000000000000000000000000000000000000000000000000000000000000000000000000000000000000000000000000000000000000000000000000000000000",
      "type": "0x2",
      "transactionHash": "0xe6a1441d086acf60c585c3743a2f98f9ba003db1993cd9be5931da1ed574b4cb",
      "transactionIndex": "0x51",
      "blockHash": "0x9876acd4018f952d480aa31147f183cb0afc570d2e194864aa0040b0302c20ec",
      "blockNumber": "0x65ebac",
      "gasUsed": "0x5b94",
      "effectiveGasPrice": "0x207dc19f",
      "from": "0x0d7bce289d74790a4771e38b73f4cb56085cc296",
      "to": "0xdae97900d4b184c5d2012dcdb658c008966466dd",
      "contractAddress": null
    }
  ],
  "libraries": [],
  "pending": [],
  "returns": {},
  "timestamp": 1726170650,
  "chain": 11155111,
  "commit": "9af5f69"
}