{
  "transactions": [
    {
      "hash": "0x480bd725b9aa328e99bda44b1b1d4fd512baa538c2f9850822e6654166212612",
      "transactionType": "CALL",
      "contractName": null,
      "contractAddress": "0x7b79995e5f793a07bc00c21412e50ecae098e7f9",
      "function": "approve(address,uint256)",
      "arguments": [
        "0xdaE97900D4B184c5D2012dcdB658c008966466DD",
        "30000000000000000000000000"
      ],
      "transaction": {
        "from": "0x0d7bce289d74790a4771e38b73f4cb56085cc296",
        "to": "0x7b79995e5f793a07bc00c21412e50ecae098e7f9",
        "gas": "0x8d0f",
        "value": "0x0",
        "input": "0x095ea7b3000000000000000000000000dae97900d4b184c5d2012dcdb658c008966466dd00000000000000000000000000000000000000000018d0bf423c03d8de000000",
        "nonce": "0x56a",
        "chainId": "0xaa36a7"
      },
      "additionalContracts": [],
      "isFixedGasLimit": false
    },
    {
      "hash": "0xae8bc3e1344a3c78fedbdcb10c7d027a0ac96e1e0b270aa955e1a85d50b9c30b",
      "transactionType": "CALL",
      "contractName": null,
      "contractAddress": "0xaa8e23fb1079ea71e0a56f48a2aa51851d8433d0",
      "function": "approve(address,uint256)",
      "arguments": [
        "0xdaE97900D4B184c5D2012dcdB658c008966466DD",
        "30000000000000000000000000"
      ],
      "transaction": {
        "from": "0x0d7bce289d74790a4771e38b73f4cb56085cc296",
        "to": "0xaa8e23fb1079ea71e0a56f48a2aa51851d8433d0",
        "gas": "0x969b",
        "value": "0x0",
        "input": "0x095ea7b3000000000000000000000000dae97900d4b184c5d2012dcdb658c008966466dd00000000000000000000000000000000000000000018d0bf423c03d8de000000",
        "nonce": "0x56b",
        "chainId": "0xaa36a7"
      },
      "additionalContracts": [],
      "isFixedGasLimit": false
    },
    {
      "hash": "0xefe544970d7330daef05690bd0031a857c4d93c46a199cf70b4c81ab6e1f4be9",
      "transactionType": "CALL",
      "contractName": "PoolModifyLiquidityTest",
      "contractAddress": "0xdae97900d4b184c5d2012dcdb658c008966466dd",
      "function": "modifyLiquidity((address,address,uint24,int24,address),(int24,int24,int256,bytes32),bytes)",
      "arguments": [
        "(0x7b79995e5f793A07Bc00c21412e50Ecae098E7f9, 0xaA8E23Fb1079EA71e0a56F48a2aA51851D8433D0, 3000, 60, 0x0000000000000000000000000000000000000000)",
        "(-60, 60, 100000000000, 0x0000000000000000000000000000000000000000000000000000000000000000)",
        "0x"
      ],
      "transaction": {
        "from": "0x0d7bce289d74790a4771e38b73f4cb56085cc296",
        "to": "0xdae97900d4b184c5d2012dcdb658c008966466dd",
        "gas": "0x7e7d",
        "value": "0x0",
        "input": "0x5a6bcfda0000000000000000000000007b79995e5f793a07bc00c21412e50ecae098e7f9000000000000000000000000aa8e23fb1079ea71e0a56f48a2aa51851d8433d00000000000000000000000000000000000000000000000000000000000000bb8000000000000000000000000000000000000000000000000000000000000003c0000000000000000000000000000000000000000000000000000000000000000ffffffffffffffffffffffffffffffffffffffffffffffffffffffffffffffc4000000000000000000000000000000000000000000000000000000000000003c000000000000000000000000000000000000000000000000000000174876e800000000000000000000000000000000000000000000000000000000000000000000000000000000000000000000000000000000000000000000000000000001400000000000000000000000000000000000000000000000000000000000000000",
        "nonce": "0x56c",
        "chainId": "0xaa36a7"
      },
      "additionalContracts": [],
      "isFixedGasLimit": false
    }
  ],
  "receipts": [
    {
      "status": "0x1",
      "cumulativeGasUsed": "0x696e9f",
      "logs": [
        {
          "address": "0x7b79995e5f793a07bc00c21412e50ecae098e7f9",
          "topics": [
            "0x8c5be1e5ebec7d5bd14f71427d1e84f3dd0314c0f7b2291e5b200ac8c7c3b925",
            "0x0000000000000000000000000d7bce289d74790a4771e38b73f4cb56085cc296",
            "0x000000000000000000000000dae97900d4b184c5d2012dcdb658c008966466dd"
          ],
          "data": "0x00000000000000000000000000000000000000000018d0bf423c03d8de000000",
          "blockHash": "0xdf9ef3125c56edfe011bcb9f493062c0315704eb04b621ca6061156261620351",
          "blockNumber": "0x65eb66",
          "transactionHash": "0x480bd725b9aa328e99bda44b1b1d4fd512baa538c2f9850822e6654166212612",
          "transactionIndex": "0x37",
          "logIndex": "0x47",
          "removed": false
        }
      ],
      "logsBloom": "0x00000000000000000000000000000000000000000000000000000004000000000400000000000000000000000001000000000000000000000000000000200000000000000000000000000000000000000000000000000020000000000000000000000000000000000000000000000000000000000000000000000000000000000000000008000000000000200000000000000000000000000000000000000000020000000000000000000000000000080000000000000000000000000000000000000002000000000000000000000000000100000000000000000000000000000010000000000000000000000000000000000000000000000000000000000000",
      "type": "0x2",
      "transactionHash": "0x480bd725b9aa328e99bda44b1b1d4fd512baa538c2f9850822e6654166212612",
      "transactionIndex": "0x37",
      "blockHash": "0xdf9ef3125c56edfe011bcb9f493062c0315704eb04b621ca6061156261620351",
      "blockNumber": "0x65eb66",
      "gasUsed": "0x6620",
      "effectiveGasPrice": "0x156dabea",
      "from": "0x0d7bce289d74790a4771e38b73f4cb56085cc296",
      "to": "0x7b79995e5f793a07bc00c21412e50ecae098e7f9",
      "contractAddress": null
    },
    {
      "status": "0x1",
      "cumulativeGasUsed": "0x69d59a",
      "logs": [
        {
          "address": "0xaa8e23fb1079ea71e0a56f48a2aa51851d8433d0",
          "topics": [
            "0x8c5be1e5ebec7d5bd14f71427d1e84f3dd0314c0f7b2291e5b200ac8c7c3b925",
            "0x0000000000000000000000000d7bce289d74790a4771e38b73f4cb56085cc296",
            "0x000000000000000000000000dae97900d4b184c5d2012dcdb658c008966466dd"
          ],
          "data": "0x00000000000000000000000000000000000000000018d0bf423c03d8de000000",
          "blockHash": "0xdf9ef3125c56edfe011bcb9f493062c0315704eb04b621ca6061156261620351",
          "blockNumber": "0x65eb66",
          "transactionHash": "0xae8bc3e1344a3c78fedbdcb10c7d027a0ac96e1e0b270aa955e1a85d50b9c30b",
          "transactionIndex": "0x38",
          "logIndex": "0x48",
          "removed": false
        }
      ],
      "logsBloom": "0x00000000000000000000000000000000000000000000000000000000000000000400000000000000000000000001002000000000000000000000000000200000000000000000000000000000000000000000000000000020000000000000000004000000000000000000000000000000000000000000000000000000000000000000000008000000004000200000000000000000000000000000000000000000020000000000000000000000000000000000000000000000000000000000000000000000000000000000000000000000000100000000000000000000000000000010000000000000000000000000000000000000000000000000000000000000",
      "type": "0x2",
      "transactionHash": "0xae8bc3e1344a3c78fedbdcb10c7d027a0ac96e1e0b270aa955e1a85d50b9c30b",
      "transactionIndex": "0x38",
      "blockHash": "0xdf9ef3125c56edfe011bcb9f493062c0315704eb04b621ca6061156261620351",
      "blockNumber": "0x65eb66",
      "gasUsed": "0x66fb",
      "effectiveGasPrice": "0x156dabea",
      "from": "0x0d7bce289d74790a4771e38b73f4cb56085cc296",
      "to": "0xaa8e23fb1079ea71e0a56f48a2aa51851d8433d0",
      "contractAddress": null
    },
    {
      "status": "0x1",
      "cumulativeGasUsed": "0x6a312e",
      "logs": [],
      "logsBloom": "0x00000000000000000000000000000000000000000000000000000000000000000000000000000000000000000000000000000000000000000000000000000000000000000000000000000000000000000000000000000000000000000000000000000000000000000000000000000000000000000000000000000000000000000000000000000000000000000000000000000000000000000000000000000000000000000000000000000000000000000000000000000000000000000000000000000000000000000000000000000000000000000000000000000000000000000000000000000000000000000000000000000000000000000000000000000000",
      "type": "0x2",
      "transactionHash": "0xefe544970d7330daef05690bd0031a857c4d93c46a199cf70b4c81ab6e1f4be9",
      "transactionIndex": "0x39",
      "blockHash": "0xdf9ef3125c56edfe011bcb9f493062c0315704eb04b621ca6061156261620351",
      "blockNumber": "0x65eb66",
      "gasUsed": "0x5b94",
      "effectiveGasPrice": "0x156dabea",
      "from": "0x0d7bce289d74790a4771e38b73f4cb56085cc296",
      "to": "0xdae97900d4b184c5d2012dcdb658c008966466dd",
      "contractAddress": null
    }
  ],
  "libraries": [],
  "pending": [],
  "returns": {},
  "timestamp": 1726169680,
  "chain": 11155111,
  "commit": "9af5f69"
}