{
  "transactions": [
    {
      "hash": "0x0812a3aa5c50bf8f880b2e1e80d802f16e1dd9be8827784815cc5d85e939e8ab",
      "transactionType": "CALL",
      "contractName": null,
      "contractAddress": "0x7b79995e5f793a07bc00c21412e50ecae098e7f9",
      "function": "approve(address,uint256)",
      "arguments": [
        "0xdaE97900D4B184c5D2012dcdB658c008966466DD",
        "30000000000000000000000000"
      ],
      "transaction": {
        "from": "0x0d7bce289d74790a4771e38b73f4cb56085cc296",
        "to": "0x7b79995e5f793a07bc00c21412e50ecae098e7f9",
        "gas": "0xf86d",
        "value": "0x0",
        "input": "0x095ea7b3000000000000000000000000dae97900d4b184c5d2012dcdb658c008966466dd00000000000000000000000000000000000000000018d0bf423c03d8de000000",
        "nonce": "0x555",
        "chainId": "0xaa36a7"
      },
      "additionalContracts": [],
      "isFixedGasLimit": false
    },
    {
      "hash": "0x92f9377d9a13415911f4bacd032ac6479651f0f0f4f07e46572ec1e9574f6520",
      "transactionType": "CALL",
      "contractName": null,
      "contractAddress": "0xaa8e23fb1079ea71e0a56f48a2aa51851d8433d0",
      "function": "approve(address,uint256)",
      "arguments": [
        "0xdaE97900D4B184c5D2012dcdB658c008966466DD",
        "30000000000000000000000000"
      ],
      "transaction": {
        "from": "0x0d7bce289d74790a4771e38b73f4cb56085cc296",
        "to": "0xaa8e23fb1079ea71e0a56f48a2aa51851d8433d0",
        "gas": "0xf99c",
        "value": "0x0",
        "input": "0x095ea7b3000000000000000000000000dae97900d4b184c5d2012dcdb658c008966466dd00000000000000000000000000000000000000000018d0bf423c03d8de000000",
        "nonce": "0x556",
        "chainId": "0xaa36a7"
      },
      "additionalContracts": [],
      "isFixedGasLimit": false
    },
    {
      "hash": "0x543e9deae317b1821b0ade4c8350950047447c076195716eb4cedd337de9b2a3",
      "transactionType": "CALL",
      "contractName": "PoolModifyLiquidityTest",
      "contractAddress": "0xdae97900d4b184c5d2012dcdb658c008966466dd",
      "function": "modifyLiquidity((address,address,uint24,int24,address),(int24,int24,int256,bytes32),bytes)",
      "arguments": [
        "(0x7b79995e5f793A07Bc00c21412e50Ecae098E7f9, 0xaA8E23Fb1079EA71e0a56F48a2aA51851D8433D0, 3000, 60, 0x0000000000000000000000000000000000000000)",
        "(-60, 60, 10000000, 0x0000000000000000000000000000000000000000000000000000000000000000)",
        "0x"
      ],
      "transaction": {
        "from": "0x0d7bce289d74790a4771e38b73f4cb56085cc296",
        "to": "0xdae97900d4b184c5d2012dcdb658c008966466dd",
        "gas": "0x7e6c",
        "value": "0x0",
        "input": "0x5a6bcfda0000000000000000000000007b79995e5f793a07bc00c21412e50ecae098e7f9000000000000000000000000aa8e23fb1079ea71e0a56f48a2aa51851d8433d00000000000000000000000000000000000000000000000000000000000000bb8000000000000000000000000000000000000000000000000000000000000003c0000000000000000000000000000000000000000000000000000000000000000ffffffffffffffffffffffffffffffffffffffffffffffffffffffffffffffc4000000000000000000000000000000000000000000000000000000000000003c0000000000000000000000000000000000000000000000000000000000989680000000000000000000000000000000000000000000000000000000000000000000000000000000000000000000000000000000000000000000000000000001400000000000000000000000000000000000000000000000000000000000000000",
        "nonce": "0x557",
        "chainId": "0xaa36a7"
      },
      "additionalContracts": [],
      "isFixedGasLimit": false
    }
  ],
  "receipts": [
    {
      "status": "0x1",
      "cumulativeGasUsed": "0x7b37e1",
      "logs": [
        {
          "address": "0x7b79995e5f793a07bc00c21412e50ecae098e7f9",
          "topics": [
            "0x8c5be1e5ebec7d5bd14f71427d1e84f3dd0314c0f7b2291e5b200ac8c7c3b925",
            "0x0000000000000000000000000d7bce289d74790a4771e38b73f4cb56085cc296",
            "0x000000000000000000000000dae97900d4b184c5d2012dcdb658c008966466dd"
          ],
          "data": "0x00000000000000000000000000000000000000000018d0bf423c03d8de000000",
          "blockHash": "0x358380ebc0dd4e4835f00d5c09bdf458d555c5ae84a0919bf945f503a51ca464",
          "blockNumber": "0x65e46e",
          "transactionHash": "0x0812a3aa5c50bf8f880b2e1e80d802f16e1dd9be8827784815cc5d85e939e8ab",
          "transactionIndex": "0x39",
          "logIndex": "0x9a",
          "removed": false
        }
      ],
      "logsBloom": "0x00000000000000000000000000000000000000000000000000000004000000000400000000000000000000000001000000000000000000000000000000200000000000000000000000000000000000000000000000000020000000000000000000000000000000000000000000000000000000000000000000000000000000000000000008000000000000200000000000000000000000000000000000000000020000000000000000000000000000080000000000000000000000000000000000000002000000000000000000000000000100000000000000000000000000000010000000000000000000000000000000000000000000000000000000000000",
      "type": "0x2",
      "transactionHash": "0x0812a3aa5c50bf8f880b2e1e80d802f16e1dd9be8827784815cc5d85e939e8ab",
      "transactionIndex": "0x39",
      "blockHash": "0x358380ebc0dd4e4835f00d5c09bdf458d555c5ae84a0919bf945f503a51ca464",
      "blockNumber": "0x65e46e",
      "gasUsed": "0xb3dc",
      "effectiveGasPrice": "0xf11027516",
      "from": "0x0d7bce289d74790a4771e38b73f4cb56085cc296",
      "to": "0x7b79995e5f793a07bc00c21412e50ecae098e7f9",
      "contractAddress": null
    },
    {
      "status": "0x1",
      "cumulativeGasUsed": "0x7bec98",
      "logs": [
        {
          "address": "0xaa8e23fb1079ea71e0a56f48a2aa51851d8433d0",
          "topics": [
            "0x8c5be1e5ebec7d5bd14f71427d1e84f3dd0314c0f7b2291e5b200ac8c7c3b925",
            "0x0000000000000000000000000d7bce289d74790a4771e38b73f4cb56085cc296",
            "0x000000000000000000000000dae97900d4b184c5d2012dcdb658c008966466dd"
          ],
          "data": "0x00000000000000000000000000000000000000000018d0bf423c03d8de000000",
          "blockHash": "0x358380ebc0dd4e4835f00d5c09bdf458d555c5ae84a0919bf945f503a51ca464",
          "blockNumber": "0x65e46e",
          "transactionHash": "0x92f9377d9a13415911f4bacd032ac6479651f0f0f4f07e46572ec1e9574f6520",
          "transactionIndex": "0x3a",
          "logIndex": "0x9b",
          "removed": false
        }
      ],
      "logsBloom": "0x00000000000000000000000000000000000000000000000000000000000000000400000000000000000000000001002000000000000000000000000000200000000000000000000000000000000000000000000000000020000000000000000004000000000000000000000000000000000000000000000000000000000000000000000008000000004000200000000000000000000000000000000000000000020000000000000000000000000000000000000000000000000000000000000000000000000000000000000000000000000100000000000000000000000000000010000000000000000000000000000000000000000000000000000000000000",
      "type": "0x2",
      "transactionHash": "0x92f9377d9a13415911f4bacd032ac6479651f0f0f4f07e46572ec1e9574f6520",
      "transactionIndex": "0x3a",
      "blockHash": "0x358380ebc0dd4e4835f00d5c09bdf458d555c5ae84a0919bf945f503a51ca464",
      "blockNumber": "0x65e46e",
      "gasUsed": "0xb4b7",
      "effectiveGasPrice": "0xf11027516",
      "from": "0x0d7bce289d74790a4771e38b73f4cb56085cc296",
      "to": "0xaa8e23fb1079ea71e0a56f48a2aa51851d8433d0",
      "contractAddress": null
    },
    {
      "status": "0x1",
      "cumulativeGasUsed": "0x7c4820",
      "logs": [],
      "logsBloom": "0x00000000000000000000000000000000000000000000000000000000000000000000000000000000000000000000000000000000000000000000000000000000000000000000000000000000000000000000000000000000000000000000000000000000000000000000000000000000000000000000000000000000000000000000000000000000000000000000000000000000000000000000000000000000000000000000000000000000000000000000000000000000000000000000000000000000000000000000000000000000000000000000000000000000000000000000000000000000000000000000000000000000000000000000000000000000",
      "type": "0x2",
      "transactionHash": "0x543e9deae317b1821b0ade4c8350950047447c076195716eb4cedd337de9b2a3",
      "transactionIndex": "0x3b",
      "blockHash": "0x358380ebc0dd4e4835f00d5c09bdf458d555c5ae84a0919bf945f503a51ca464",
      "blockNumber": "0x65e46e",
      "gasUsed": "0x5b88",
      "effectiveGasPrice": "0xf11027516",
      "from": "0x0d7bce289d74790a4771e38b73f4cb56085cc296",
      "to": "0xdae97900d4b184c5d2012dcdb658c008966466dd",
      "contractAddress": null
    }
  ],
  "libraries": [],
  "pending": [],
  "returns": {},
  "timestamp": 1726142558,
  "chain": 11155111,
  "commit": "9af5f69"
}